:020000040000FA
:060000002AEF2EF01200B1
:020006001200E6
:08000800F2A402D03EEF21F04A
:100010009EA002D0B5EF21F09EAA02D0A7EF25F056
:10002000A1A202D0B6EF2AF01200D08EF28EF28C8E
:020030001200BC
:0E00320009003D5E000099010000080000007A
:10004000325E0000840100000B000000315E000001
:10005000A701000001000000F05D0000600000004A
:1000600041000000EE5D0000A3010000020000005E
:10007000D25D0000680100001C000000915D0000DE
:100080000001000041000000565D0000A1000000DA
:100090003B000000A05C000000030000B600000070
:1000A000D9CFE6FFE1CFD9FFE652FE0EDBCFE6FF68
:1000B000010EF36EFD0EDB5004E0D890F336E80637
:1000C000FCE1F350E552E71402E0010E01D0000E0E
:1000D000DF6EDF5000D0E552E552E7CFD9FF1200C6
:1000E000D9CFE6FFE1CFD9FF010EF36EFC0EDB5056
:1000F00004E0D890F336E806FCE1F350146EFD0EF0
:10010000DBCFE9FFFE0EDBCFEAFF1450EF12E55222
:10011000E7CFD9FF1200D9CFE6FFE1CFD9FF010E1B
:10012000F36EFC0EDB5004E0D890F336E806FCE1F9
:10013000F350E81C146EFD0EDBCFE9FFFE0EDBCFA3
:10014000EAFF1450EF16E552E7CFD9FF1200D9CFDE
:10015000E6FFE1CFD9FF030EE126DF6A010EDF5C87
:1001600001E31ED1DF28E66EDF50B50DF3CFE9FFC6
:10017000F4CFEAFF000EE926030EEA22E552E7502B
:10018000EF6EDF50B50DF3CFE9FFF4CFEAFF000EBD
:10019000E926030EEA22EE52EF6ADF50B50DF3CFE7
:1001A000E9FFF4CFEAFF000EE926030EEA22030E70
:1001B000E926000EEA22EE6AED6ADF50B50DF3CFB4
:1001C000E9FFF4CFEAFF000EE926030EEA22050E4E
:1001D000E926000EEA22EF6ADF50B50DF3CFE9FF02
:1001E000F4CFEAFF000EE926030EEA22060EE92606
:1001F000000EEA22EF6ADF50B50DF3CFE9FFF4CF2E
:10020000EAFF000EE926030EEA22090EE926000E97
:10021000EA22EF6ADF50B50DF3CFE9FFF4CFEAFF32
:10022000000EE926030EEA220A0EE926000EEA2253
:10023000EF6ADF50B50DF3CFE9FFF4CFEAFF000E10
:10024000E926030EEA22070EE926000EEA22EF6AEB
:10025000DF50B50DF3CFE9FFF4CFEAFF000EE9263A
:10026000030EEA220B0EE926000EEA22EF6ADF50A7
:10027000B50DF3CFE9FFF4CFEAFF000EE926030E38
:10028000EA220C0EE926000EEA22EF6ADF50B50DD5
:10029000F3CFE9FFF4CFEAFF000EE926030EEA22CE
:1002A000080EE926000EEA22EF6ADF50B50DF3CF03
:1002B000E9FFF4CFEAFF000EE926030EEA22020E60
:1002C000E926000EEA22EF6ADE52380EDD6E010EDC
:1002D000DBCFE6FFE66AE66ADF50B50DF3CFE9FF54
:1002E000F4CFEAFF000EE926030EEA227D0EE9268E
:1002F000000EEA22E9CF14F0EACF15F014C0E6FFB1
:1003000015C0E6FFF8EC2BF0166E050EE15E1650F8
:10031000010EDBCFE6FFE66AE66ADF50B50DF3CFEC
:10032000E9FFF4CFEAFF000EE926030EEA220D0EE4
:10033000E926000EEA22E9CF14F0EACF15F014C046
:10034000E6FF15C0E6FFF8EC2BF0166E050EE15E39
:100350001650010EDBCFE6FFE66AE66ADF50B50D08
:10036000F3CFE9FFF4CFEAFF000EE926030EEA22FD
:100370000D0EE926000EEA22E9CF14F0EACF15F0BF
:10038000380E1426000E152214C0E6FF15C0E6FF35
:10039000F8EC2BF0166E050EE15E1650DF2ADED665
:1003A000030EE15C02E2E16AE552E16EE552E7CF5D
:1003B000D9FF1200D9CFE6FFE1CFD9FF070EE12622
:1003C000010EF36EFE0EDBCFF4FFF350F45C1EE281
:1003D000FC0EDBCFE9FFFD0EDBCFEAFFEF50146E22
:1003E000156AD890155004E6800E145C000E15585E
:1003F0000DE2FC0EDBCFE9FFFD0EDBCFEAFF020EC4
:10040000E926000EEA22EE50ED1002E1000EEFD3D5
:10041000FE0EDB50B50DF3CFE9FFF4CFEAFF000E7F
:10042000E926030EEA22EE52E9CF14F0EACF15F0E6
:10043000050E14C0DBFF060E15C0DBFFFC0EDBCF84
:10044000E9FFFD0EDBCFEAFFEECF14F0EECF15F0A3
:10045000EECF16F0EECF17F0EECF18F0EFCF19F089
:10046000050EDBCFE9FF060EDBCFEAFF14C0EEFF7F
:1004700015C0EEFF16C0EEFF17C0EEFF18C0EEFF6E
:1004800019C0EEFFFE0EDB50B50DF3CFE9FFF4CF40
:10049000EAFF000EE926030EEA22060EE926000E08
:1004A000EA22EF50E66EFE0EDB50B50DF3CFE9FF0A
:1004B000F4CFEAFF000EE926030EEA22070EE92632
:1004C000000EEA22E552E750EF6E380EDF6EDFCF06
:1004D000E6FFE66AE66AFE0EDB50B50DF3CFE9FFF4
:1004E000F4CFEAFF000EE926030EEA227D0EE9268C
:1004F000000EEA22E9CF14F0EACF15F014C0E6FFAF
:1005000015C0E6FFF8EC2BF0166E050EE15E1650F6
:10051000DFCFE6FFE66AE66AFE0EDB50B50DF3CFED
:10052000E9FFF4CFEAFF000EE926030EEA220D0EE2
:10053000E926000EEA22E9CF14F0EACF15F014C044
:10054000E6FF15C0E6FFF8EC2BF0166E050EE15E37
:100550001650DFCFE6FFE66AE66AFE0EDB50B50D09
:10056000F3CFE9FFF4CFEAFF000EE926030EEA22FB
:100570000D0EE926000EEA22E9CF14F0EACF15F0BD
:10058000380E1426000E152214C0E6FF15C0E6FF33
:10059000F8EC2BF0166E050EE15E1650FE0EDB50E9
:1005A000B50DF3CFE9FFF4CFEAFF000EE926030E05
:1005B000EA22060EE926000EEA22EF5001E083D17E
:1005C000FE0EDB50B50DF3CFE9FFF4CFEAFF000ECE
:1005D000E926030EEA22080EE926000EEA22EF6A57
:1005E000DF6AFE0EDB50B50DF3CFE9FFF4CFEAFF73
:1005F000000EE926030EEA22020EE926000EEA2288
:10060000EF50DF5C01E35ED1FE0EDB50B50DF3CFA2
:10061000E9FFF4CFEAFF000EE926030EEA22080EF6
:10062000E926000EEA22EF50EF2A146E156AFE0E3C
:10063000DB50B50DF3CFE9FFF4CFEAFF000EE9265A
:10064000030EEA22030EE926000EEA221450EE24DD
:10065000E76E1550EE20EA6EE7CFE9FFEF50E00FAE
:10066000E76E040EE7CFDBFFDBCF14F014340EE2AD
:10067000040EDBCF15F0630EE76E1518E8AE02D05E
:10068000153403D0E750D880155402E2040EDB6A1B
:10069000FE0EDB50B50DF3CFE9FFF4CFEAFF000EFD
:1006A000E926030EEA22080EE926000EEA22EFCF21
:1006B00014F0FE0EDB50B50DF3CFE9FFF4CFEAFFE7
:1006C000000EE926030EEA22050EE926000EEA22B4
:1006D000EF50145C10E3FE0EDB50B50DF3CFE9FFD5
:1006E000F4CFEAFF000EE926030EEA22080EE926FF
:1006F000000EEA22EF6A010EDB6A070EF36E010EAE
:10070000DBCFF4FFF350F45C01E3DAD0040EDBCF6F
:1007100018F0196A18BE1968030ED89018361936E1
:10072000E806FBE1020E1826460E1922010EDB50E8
:100730000F011824F66E000E1920F76E0800F55010
:10074000E66EFE0EDB50B50DF3CFE9FFF4CFEAFF06
:10075000000EE926030EEA227D0EE926000EEA22AB
:10076000E9CF16F0EACF17F0010EDB50080D165056
:10077000F324146E1750F420156EDF500F0114246B
:10078000E96E000E1520EA6EE552E750EF6EFE0EA0
:10079000DB50B50DF3CFE9FFF4CFEAFF000EE926F9
:1007A000030EEA227D0EE926000EEA22E9CF1AF0B6
:1007B000EACF1BF0010EDB50080D1A50F324186E1F
:1007C0001B50F420196EDF501824E96E000E19201A
:1007D000EA6EEF50E66EFE0EDB50B50DF3CFE9FF8B
:1007E000F4CFEAFF000EE926030EEA220D0EE926F9
:1007F000000EEA22E9CF16F0EACF17F0010EDB5027
:10080000080D1650F324146E1750F420156EDF50A7
:100810001424E96E000E1520EA6EE552E750EF6EE3
:10082000FE0EDB50B50DF3CFE9FFF4CFEAFF000E6B
:10083000E926030EEA227D0EE926000EEA22E9CF20
:100840001AF0EACF1BF0010EDB50080D1A50F3240A
:10085000186E1B50F420196EDF501824E96E000E3C
:100860001920EA6EEF50E66EFE0EDB50B50DF3CFA9
:10087000E9FFF4CFEAFF000EE926030EEA220D0E8F
:10088000E926000EEA22E9CF16F0EACF17F0380E7B
:100890001626000E1722010EDB50080D1650F32409
:1008A000146E1750F420156EDF501424E96E000EFC
:1008B0001520EA6EE552E750EF6E010EDB2A1DD7D8
:1008C000DF2A8FD682D1FE0EDB50B50DF3CFE9FFC4
:1008D000F4CFEAFF000EE926030EEA22080EE9260D
:1008E000000EEA22EF6ADF6AFE0EDB50B50DF3CF91
:1008F000E9FFF4CFEAFF000EE926030EEA22020E1A
:10090000E926000EEA22EF50DF5C01E35ED1FE0E25
:10091000DB50B50DF3CFE9FFF4CFEAFF000EE92677
:10092000030EEA22080EE926000EEA22EF50EF2A13
:10093000146E156AFE0EDB50B50DF3CFE9FFF4CF50
:10094000EAFF000EE926030EEA22030EE926000E56
:10095000EA221450EE24E76E1550EE20EA6EE7CF3F
:10096000E9FFEF50E00FE76E040EE7CFDBFFDBCFD0
:1009700014F014340EE2040EDBCF15F0630EE76EB4
:100980001518E8AE02D0153403D0E750D8801554BE
:1009900002E2040EDB6AFE0EDB50B50DF3CFE9FF79
:1009A000F4CFEAFF000EE926030EEA22080EE9263C
:1009B000000EEA22EFCF14F0FE0EDB50B50DF3CFA0
:1009C000E9FFF4CFEAFF000EE926030EEA22050E46
:1009D000E926000EEA22EF50145C10E3FE0EDB5015
:1009E000B50DF3CFE9FFF4CFEAFF000EE926030EC1
:1009F000EA22080EE926000EEA22EF6A010EDB6AFF
:100A0000070EF36E010EDBCFF4FFF350F45C01E34D
:100A1000DAD0040EDBCF18F0196A18BE1968030E7D
:100A2000D89018361936E806FBE1020E1826460E55
:100A30001922010EDB500F011824F66E000E19204A
:100A4000F76E0800F550E66EFE0EDB50B50DF3CFE5
:100A5000E9FFF4CFEAFF000EE926030EEA227D0E3D
:100A6000E926000EEA22E9CF16F0EACF17F0010ED0
:100A7000DB50080D1650F324146E1750F420156E39
:100A8000DF500F011424E96E000E1520EA6EE552C6
:100A9000E750EF6EFE0EDB50B50DF3CFE9FFF4CF5C
:100AA000EAFF000EE926030EEA227D0EE926000E7B
:100AB000EA22E9CF1AF0EACF1BF0010EDB50080D55
:100AC0001A50F324186E1B50F420196EDF501824AE
:100AD000E96E000E1920EA6EEF50E66EFE0EDB5056
:100AE000B50DF3CFE9FFF4CFEAFF000EE926030EC0
:100AF000EA220D0EE926000EEA22E9CF16F0EACF2F
:100B000017F0010EDB50080D1650F324146E175029
:100B1000F420156EDF501424E96E000E1520EA6EE5
:100B2000E552E750EF6EFE0EDB50B50DF3CFE9FF57
:100B3000F4CFEAFF000EE926030EEA227D0EE92635
:100B4000000EEA22E9CF1AF0EACF1BF0010EDB50CB
:100B5000080D1A50F324186E1B50F420196EDF5044
:100B60001824E96E000E1920EA6EEF50E66EFE0EB4
:100B7000DB50B50DF3CFE9FFF4CFEAFF000EE92615
:100B8000030EEA220D0EE926000EEA22E9CF16F046
:100B9000EACF17F0380E1626000E1722010EDB5092
:100BA000080D1650F324146E1750F420156EDF5004
:100BB0001424E96E000E1520EA6EE552E750EF6E40
:100BC000010EDB2A1DD7DF2A8FD6FE0EDB50B50DB6
:100BD000F3CFE9FFF4CFEAFF000EE926030EEA2285
:100BE000080EE926000EEA22EF6A010E00D0146E0C
:100BF000070EE15C02E2E16AE552E16E1450E55253
:100C0000E7CFD9FF1200D9CFE6FFE1CFD9FFFE0E23
:100C1000DB50B50DF3CFE9FFF4CFEAFF000EE92674
:100C2000030EEA22060EE926000EEA22FD0EDBCFB5
:100C3000EFFFFE0EDB50B50DF3CFE9FFF4CFEAFF77
:100C4000000EE926030EEA22070EE926000EEA222C
:100C5000FD0EDBCFEFFFE552E7CFD9FF1200D9CF72
:100C6000E6FFE1CFD9FF020EE126FD0EDB50146E48
:100C7000156AFE0EDB50B50DF3CFE9FFF4CFEAFFA6
:100C8000000EE926030EEA22030EE926000EEA22F0
:100C90001450EE24E76E1550EE20EA6EE7CFE9FF20
:100CA000EF50E00FE76E010EE7CFDBFFDF6A070EC4
:100CB000DF5C01E3B1D0010EDB50080DF3CF18F07B
:100CC000F4CF19F0020E1826460E1922DF500F013C
:100CD0001824F66E000E1920F76E0800F550E66E27
:100CE000FE0EDB50B50DF3CFE9FFF4CFEAFF000EA7
:100CF000E926030EEA227D0EE926000EEA22E9CF5C
:100D000016F0EACF17F0DF50080D1650F324146EDA
:100D10001750F420156EFD0EDB500F011424E96E00
:100D2000000E1520EA6EE552E750EF6EDF50080D19
:100D3000F3CF18F0F4CF19F07D0E1826030E192208
:100D4000FD0EDB501824E96E000E1920EA6EEF50FC
:100D5000E66EFE0EDB50B50DF3CFE9FFF4CFEAFFF0
:100D6000000EE926030EEA220D0EE926000EEA2205
:100D7000E9CF16F0EACF17F0DF50080D1650F32434
:100D8000146E1750F420156EFD0EDB501424E96E1E
:100D9000000E1520EA6EE552E750EF6EDF50080DA9
:100DA000F3CF18F0F4CF19F07D0E1826030E192298
:100DB000FD0EDB501824E96E000E1920EA6EEF508C
:100DC000E66EFE0EDB50B50DF3CFE9FFF4CFEAFF80
:100DD000000EE926030EEA220D0EE926000EEA2295
:100DE000E9CF16F0EACF17F0380E1626000E1722BC
:100DF000DF50080D1650F324146E1750F420156EB2
:100E0000FD0EDB501424E96E000E1520EA6EE5524B
:100E1000E750EF6EDF2A4BD7020EE15C02E2E16A97
:100E2000E552E16EE552E7CFD9FF1200D9CFE6FFD8
:100E3000E1CFD9FFE652FE0EDB50B50DF3CFE9FF4F
:100E4000F4CFEAFF000EE926030EEA22EE52EF6A23
:100E5000FE0EDB50B50DF3CFE9FFF4CFEAFF000E35
:100E6000E926030EEA22030EE926000EEA22EE6AC4
:100E7000ED6AFE0EDB50B50DF3CFE9FFF4CFEAFFCC
:100E8000000EE926030EEA22050EE926000EEA22EC
:100E9000EF6AFE0EDB50B50DF3CFE9FFF4CFEAFFAA
:100EA000000EE926030EEA22060EE926000EEA22CB
:100EB000EF6AFE0EDB50B50DF3CFE9FFF4CFEAFF8A
:100EC000000EE926030EEA22090EE926000EEA22A8
:100ED000EF6AFE0EDB50B50DF3CFE9FFF4CFEAFF6A
:100EE000000EE926030EEA220A0EE926000EEA2287
:100EF000EF6AFE0EDB50B50DF3CFE9FFF4CFEAFF4A
:100F0000000EE926030EEA22070EE926000EEA2269
:100F1000EF6AFE0EDB50B50DF3CFE9FFF4CFEAFF29
:100F2000000EE926030EEA220B0EE926000EEA2245
:100F3000EF6AFE0EDB50B50DF3CFE9FFF4CFEAFF09
:100F4000000EE926030EEA220C0EE926000EEA2224
:100F5000EF6AFE0EDB50B50DF3CFE9FFF4CFEAFFE9
:100F6000000EE926030EEA22080EE926000EEA2208
:100F7000EF6AFE0EDB50B50DF3CFE9FFF4CFEAFFC9
:100F8000000EE926030EEA22020EE926000EEA22EE
:100F9000EF6A380EDF6EDFCFE6FFE66AE66AFE0E26
:100FA000DB50B50DF3CFE9FFF4CFEAFF000EE926E1
:100FB000030EEA227D0EE926000EEA22E9CF14F0A4
:100FC000EACF15F014C0E6FF15C0E6FFF8EC2BF0F1
:100FD000166E050EE15E1650DFCFE6FFE66AE66AA2
:100FE000FE0EDB50B50DF3CFE9FFF4CFEAFF000EA4
:100FF000E926030EEA220D0EE926000EEA22E9CFC9
:1010000014F0EACF15F014C0E6FF15C0E6FFF8ECC7
:101010002BF0166E050EE15E1650DFCFE6FFE66A96
:10102000E66AFE0EDB50B50DF3CFE9FFF4CFEAFF21
:10103000000EE926030EEA220D0EE926000EEA2232
:10104000E9CF14F0EACF15F0380E1426000E152261
:1010500014C0E6FF15C0E6FFF8EC2BF0166E050E87
:10106000E15E1650E552E552E7CFD9FF1200D9CF25
:10107000E6FFE1CFD9FF050EE126DF6A010EDF5C56
:1010800001E3BBD3DF50B50DF3CFE9FFF4CFEAFFA7
:10109000000EE926030EEA22060EE926000EEA22D9
:1010A000EF5021E0DF50B50DF3CFE9FFF4CFEAFFB9
:1010B000000EE926030EEA22070EE926000EEA22B8
:1010C000EF06DF50B50DF3CFE9FFF4CFEAFF000ED6
:1010D000E926030EEA22070EE926000EEA22EF5067
:1010E000000801E288D3DF50B50DF3CFE9FFF4CF5C
:1010F000EAFF000EE926030EEA22060EE926000E9C
:10110000EA22EF50E66EDF50B50DF3CFE9FFF4CFE2
:10111000EAFF000EE926030EEA22070EE926000E7A
:10112000EA22E552E750EF6E9D90DF50B50DF3CF08
:10113000E9FFF4CFEAFF000EE926030EEA22090ECA
:10114000E926000EEA22EF5025E1DF50B50DF3CF7E
:10115000E9FFF4CFEAFF000EE926030EEA220C0EA7
:10116000E926000EEA22EF5002E1010E01D0000E46
:10117000E66EDF50B50DF3CFE9FFF4CFEAFF000EC6
:10118000E926030EEA220B0EE926000EEA22E552BA
:10119000E750EF6EDF50B50DF3CFE9FFF4CFEAFF74
:1011A000000EE926030EEA22090EE926000EEA22C5
:1011B000EF0402E19D801FD39D80DF50B50DF3CF7A
:1011C000E9FFF4CFEAFF000EE926030EEA22060E3D
:1011D000E926000EEA22EF5001E1FBD2010EDB6AA4
:1011E000070EF36E010EDBCFF4FFF350F45C01E366
:1011F00080D2010EF36E020EF3CFDBFFDF50B50D90
:10120000F3CFE9FFF4CFEAFF000EE926030EEA224E
:10121000020EE926000EEA22EF50F36E020EDBCF3B
:10122000F4FFF350F45C01E311D1DF50B50DF3CFBF
:10123000E9FFF4CFEAFF000EE926030EEA227D0E55
:10124000E926000EEA22E9CF16F0EACF17F0010EE8
:10125000DB50080D1650F324146E1750F420156E51
:10126000020EDB040F011424E96E000E1520EA6E55
:10127000EF9EEF46070EE66EDF50B50DF3CFE9FFA8
:10128000F4CFEAFF000EE926030EEA227D0EE926DE
:10129000000EEA22E9CF16F0EACF17F0010EDB507C
:1012A000080D1650F324146E1750F420156E020E1C
:1012B000DB501424E96E000E1520EA6EEF50E66E46
:1012C00050EC00F0E552E55201082FE1030EE66E06
:1012D000DF50B50DF3CFE9FFF4CFEAFF000EE926AA
:1012E000030EEA227D0EE926000EEA22E9CF18F06D
:1012F000EACF19F0010EDB50080D1850F324166EDA
:101300001950F420176E020EDB0400011624146E2F
:10131000000E1720156E14C0E6FF15C0E6FF70EC36
:1013200000F0E552E552E5522ED0030EE66EDF5096
:10133000B50DF3CFE9FFF4CFEAFF000EE926030E67
:10134000EA227D0EE926000EEA22E9CF18F0EACF64
:1013500019F0010EDB50080D1850F324166E1950C9
:10136000F420176E020EDB0400011624146E000E2A
:101370001720156E14C0E6FF15C0E6FF8BEC00F0D9
:10138000E552E552E552DF50B50DF3CFE9FFF4CF5A
:10139000EAFF000EE926030EEA227D0EE926000E82
:1013A000EA22E9CF1CF0EACF1DF0010EDB50080D58
:1013B0001C50F3241A6E1D50F4201B6E020EDB0429
:1013C0000F011A24E96E000E1B20EA6EEF50E66E44
:1013D000DF50B50DF3CFE9FFF4CFEAFF000EE926A9
:1013E000030EEA220D0EE926000EEA22E9CF18F0DC
:1013F000EACF19F0DF50B50DF3CFE9FFF4CFEAFFE4
:10140000000EE926030EEA220B0EE926000EEA2260
:10141000EF50380D1850F324166E1950F420176E43
:10142000010EDB50080D1650F324146E1750F420F3
:10143000156E020EDB041424E96E000E1520EA6E10
:10144000E552E750EF6E020EDB2AD8D6DF50B50D1D
:10145000F3CFE9FFF4CFEAFF000EE926030EEA22FC
:101460007D0EE926000EEA22E9CF16F0EACF17F04A
:10147000010EDB50080D1650F324146E1750F420A3
:10148000156E020EDB040F011424E96E000E152008
:10149000EA6EEF9EEF46DF50B50DF3CFE9FFF4CFD4
:1014A000EAFF000EE926030EEA22080EE926000EE6
:1014B000EA22EF50146E156ADF50B50DF3CFE9FF45
:1014C000F4CFEAFF000EE926030EEA22030EE92616
:1014D000000EEA221450EE24E76E1550EE20EA6E5C
:1014E000E7CFE9FFEF50E00FE76E030EE7CFDBFF3A
:1014F000000EF36E030EDBCFF4FFF350F45C04E355
:10150000030EDB50630802E2030EDB6A030EDB50BE
:10151000080DF3CF14F0F4CF15F0020E1426460E8A
:101520001522010EDB500F011424F66E000E15205B
:10153000F76E0800040EF5CFDBFF070E146EDF50C8
:10154000B50DF3CFE9FFF4CFEAFF000EE926030E55
:10155000EA220A0EE926000EEA22EF50145CE66E3B
:10156000040EDBCFE6FF50EC00F0E552E552010837
:101570002FE1030EE66EDF50B50DF3CFE9FFF4CF98
:10158000EAFF000EE926030EEA227D0EE926000E90
:10159000EA22E9CF18F0EACF19F0010EDB50080D6E
:1015A0001850F324166E1950F420176E020EDB0447
:1015B00000011624146E000E1720156E14C0E6FFED
:1015C00015C0E6FF70EC00F0E552E552E5522ED072
:1015D000030EE66EDF50B50DF3CFE9FFF4CFEAFF5F
:1015E000000EE926030EEA227D0EE926000EEA220D
:1015F000E9CF18F0EACF19F0010EDB50080D1850B2
:10160000F324166E1950F420176E020EDB0400014D
:101610001624146E000E1720156E14C0E6FF15C0B8
:10162000E6FF8BEC00F0E552E552E552DF50B50DD8
:10163000F3CFE9FFF4CFEAFF000EE926030EEA221A
:101640007D0EE926000EEA22E9CF1CF0EACF1DF05C
:10165000010EDB50080D1C50F3241A6E1D50F420AF
:101660001B6E020EDB040F011A24E96E000E1B2014
:10167000EA6EEF50E66EDF50B50DF3CFE9FFF4CF21
:10168000EAFF000EE926030EEA220D0EE926000EFF
:10169000EA22E9CF18F0EACF19F0DF50B50DF3CF09
:1016A000E9FFF4CFEAFF000EE926030EEA220B0E53
:1016B000E926000EEA22EF50380D1850F324166E7A
:1016C0001950F420176E010EDB50080D1650F3244C
:1016D000146E1750F420156E020EDB041424E96E0C
:1016E000000E1520EA6EE552E750EF6E010EDB2A80
:1016F00077D5DF50B50DF3CFE9FFF4CFEAFF000E49
:10170000E926030EEA220A0EE926000EEA22EF2A53
:10171000DF50B50DF3CFE9FFF4CFEAFF000EE92665
:10172000030EEA220A0EE926000EEA22EFCF14F099
:10173000050E145C4EE3DF50B50DF3CFE9FFF4CF97
:10174000EAFF000EE926030EEA22080EE926000E43
:10175000EA22EF2ADF50B50DF3CFE9FFF4CFEAFF1D
:10176000000EE926030EEA22080EE926000EEA2200
:10177000EFCF14F0DF50B50DF3CFE9FFF4CFEAFF60
:10178000000EE926030EEA22050EE926000EEA22E3
:10179000EF50145C0FE3DF50B50DF3CFE9FFF4CF4A
:1017A000EAFF000EE926030EEA22080EE926000EE3
:1017B000EA22EF6ADF50B50DF3CFE9FFF4CFEAFF7D
:1017C000000EE926030EEA220A0EE926000EEA229E
:1017D000EF6A9D90DF50B50DF3CFE9FFF4CFEAFF3C
:1017E000000EE926030EEA22090EE926000EEA227F
:1017F000010EEF6E9D80DF2A41D4050EE15C02E20E
:10180000E16AE552E16EE552E7CFD9FF1200D9CF88
:10181000E6FFE1CFD9FF040EE12683908392839403
:1018200083968398839A839C839E020EDB6A010EC3
:10183000F36E020EDBCFF4FFF350F45C01E390D0C3
:10184000030EDB6A020EDB50B50DF3CFE9FFF4CFD8
:10185000EAFF000EE926030EEA22020EE926000E38
:10186000EA22EF50F36E030EDBCFF4FFF350F45C8B
:1018700074E2020EDB50B50DF3CFE9FFF4CFEAFFBF
:10188000000EE926030EEA220D0EE926000EEA22DA
:10189000E9CF18F0EACF19F0020EDB50B50DF3CF07
:1018A000E9FFF4CFEAFF000EE926030EEA220C0E50
:1018B000E926000EEA22EF50380D1850F324166E78
:1018C0001950F420176E0301B551080D1650F3247A
:1018D000146E1750F420156E030EDB500F01142404
:1018E000E96E000E1520EA6EEFCFDFFF030EDBCFAF
:1018F000E6FF020EDB50B50DF3CFE9FFF4CFEAFFB0
:10190000000EE926030EEA22EE52EF50E552E724DC
:10191000E76E010EE7CFDBFF400EF36E010EDBCF6B
:10192000F4FFF350F45C0AE3800E146E010EDBCF7B
:10193000E7FF1450E726010EE7CFDBFF010EDB5077
:10194000846EDF1C856E8298080EE66E45EC2EF0E4
:10195000E5528288030EDB2A75D7020EDB2A67D791
:101960000301B551070A4EE0010A43E0030A38E0DB
:10197000010A2DE0070A22E0010A17E0030A0CE041
:10198000010A01E048D083808392839483968398F0
:10199000839A839C839E3FD0839083828394839693
:1019A0008398839A839C839E36D08390839283848A
:1019B00083968398839A839C839E2DD08390839271
:1019C000839483868398839A839C839E24D0839078
:1019D0008392839483968388839A839C839E1BD06F
:1019E00083908392839483968398838A839C839E37
:1019F00012D083908392839483968398839A838C66
:101A0000839E09D083908392839483968398839A4C
:101A1000839C838E00D0B52BB551070801E2B56BCE
:101A2000040EE15C02E2E16AE552E16EE552E7CFC5
:101A3000D9FF1200D9CFE6FFE1CFD9FF400EF36EF8
:101A4000FE0EDBCFF4FFF350F45C0AE3800E146E5D
:101A5000FE0EDBCFE7FF1450E726FE0EE7CFDBFFDD
:101A60008288FE0EDB50846EFD0EDB50856E829800
:101A7000500EE66E45EC2EF0E5528288E552E7CF37
:041A8000D9FF120078
:0C1A8400D9CFE6FFE1CFD9FF040EE12628
:101A9000020EDB6AFB0EDBCFE9FFFC0EDBCFEAFFB9
:101AA000050EEE1801E1ED5051E1010EE76EFD0E5D
:101AB000DBCFE9FFFE0EDBCFEAFFE750E926000EA1
:101AC000EA22EF50000EF350DE6EDD6A020EE76E82
:101AD000FD0EDBCFE9FFFE0EDBCFEAFFE750E92684
:101AE000000EEA22EF50DF12DF2A010E01E3DB2AAB
:101AF000E66EE66EE66ADECFE6FFDDCFE6FF030EBA
:101B0000E76EFD0EDBCF14F0FE0EDBCF15F0E750D5
:101B10001426000E152214C0E6FF15C0E6FF50EC97
:101B20001EF0166E070EE15E1650E76E030EE7CF4D
:101B3000DBFFDB500AE0030EDBCFE6FF1FEC21F0FA
:101B4000E552E76E020EE7CFDBFF05D0030EF36E22
:101B5000020EF3CFDBFF020EDB50146E040EE15CCD
:101B600003E200D0E16AE552E16E1450E552E7CF9E
:101B7000D9FF1200D9CFE6FFE1CFD9FF070EE1264A
:101B8000050EDB6AFB0EDBCFE9FFFC0EDBCFEAFFC5
:101B9000EECF14F0EFCF15F0060E145C000E1558C2
:101BA00001E2D7D0010EE76EFD0EDBCFE9FFFE0E9E
:101BB000DBCFEAFFE750E926000EEA22EF50DE6EA7
:101BC000DD6AD9CFE9FFDACFEAFFEE50ED6EEF6ABA
:101BD000020EE76EFD0EDBCFE9FFFE0EDBCFEAFF64
:101BE000E750E926000EEA22EF50DF12DF2A010E4D
:101BF00001E3DB2A030EE76EFD0EDBCFE9FFFE0EED
:101C0000DBCFEAFFE750E926000EEA22EF50E66E4E
:101C1000D950020FE96EDACFEAFFE552E750EE6ED7
:101C2000ED6AD950020FE96EDACFEAFFEE50ED6EA1
:101C3000EF6A040EE76EFD0EDBCFE9FFFE0EDBCF91
:101C4000EAFFE750E926000EEA22EF50146E156A0B
:101C5000D950020FE96EDACFEAFF1450EE12155098
:101C6000ED12050EE76EFD0EDBCFE9FFFE0EDBCFBA
:101C7000EAFFE750E926000EEA22040EEFCFDBFF71
:101C8000020EDBCF14F0030EDBCF15F0010E145C57
:101C9000000E155858E3D950020FE96EDACFEAFF6B
:101CA000780ED880EE54000EED544DE3020E086E0F
:101CB000096ADBCF0DF0030EDBCF0EF066EC2DF0E2
:101CC0000650F36E040EDB50F35C3DE1010EE66E50
:101CD000020EDBCFE6FF030EDBCFE6FFDECFE6FF33
:101CE000DDCFE6FF060EE76EFD0EDBCF14F0FE0E35
:101CF000DBCF15F0E7501426000E152214C0E6FFC6
:101D000015C0E6FF50EC1EF0166E070EE15E165091
:101D1000E76E060EE7CFDBFFDB500BE0060EDBCFF6
:101D2000E6FF1FEC21F0E552E76E050EE7CFDBFF83
:101D300009D0FB0EDBCFE9FFFC0EDBCFEAFF050E7F
:101D4000EE6EED6A05D0030EF36E050EF3CFDBFFEA
:101D500005D0030EF36E050EF3CFDBFFDB50146EE0
:101D6000070EE15C03E200D0E16AE552E16E145037
:101D7000E552E7CFD9FF1200D9CFE6FFE1CFD9FF77
:101D8000080EE126060EDB6AFB0EDBCFE9FFFC0E38
:101D9000DBCFEAFF050EEE1801E1ED5001E004D1C2
:101DA000010EE76EFD0EDBCFE9FFFE0EDBCFEAFF93
:101DB000E750E926000EEA22EF50DE6EDD6AD9CF49
:101DC000E9FFDACFEAFFEE50ED6EEF6A020EE76E42
:101DD000FD0EDBCFE9FFFE0EDBCFEAFFE750E92681
:101DE000000EEA22EF50DF12DF2A010E01E3DB2AA8
:101DF000030EE76EFD0EDBCFE9FFFE0EDBCFEAFF41
:101E0000E750E926000EEA22EF50E66ED950020FA5
:101E1000E96EDACFEAFFE552E750EE6EED6AD9508F
:101E2000020FE96EDACFEAFFEE50ED6EEF6A040EB4
:101E3000E76EFD0EDBCFE9FFFE0EDBCFEAFFE750DA
:101E4000E926000EEA22EF50E66ED950020FE96E45
:101E5000DACFEAFFE552E750EE6EED6A020EDBCF15
:101E600014F0030EDBCF15F0010E145C000E1558B4
:101E700001E294D0D950020FE96EDACFEAFF7D0E6D
:101E8000D880EE54000EED5401E288D0FD0EDBCF79
:101E900008F0FE0EDBCF09F0040E08C0DBFF050ED4
:101EA00009C0DBFFFB0EDBCFE9FFFC0EDBCFEAFF57
:101EB000EE6AED6A040EDBCFE9FFDB2A050EDBCF0D
:101EC000EAFF01E3DB2A030EEF6EFB0EDBCFE9FF37
:101ED000FC0EDBCFEAFFEE2A000EED22020E086EAA
:101EE000096ADBCF0DF0030EDBCF0EF066EC2DF0B0
:101EF0000650E66E040EDBCFE9FFDB2A050EDBCFD2
:101F0000EAFF01E3DB2AE552E750EF6EFB0EDBCF81
:101F1000E9FFFC0EDBCFEAFFEE2A000EED22E66AB7
:101F2000020EDBCFE6FF030EDBCFE6FFDECFE6FFE0
:101F3000DDCFE6FF040EDBCFE6FF050EDBCFE6FFCD
:101F400050EC1EF0146E070EE15E1450E76E070EA3
:101F5000E7CFDBFFDB500BE0070EDBCFE6FF1FEC2C
:101F600021F0E552E76E060EE7CFDBFF16D0020E3A
:101F7000DBCF14F0030EDBCF15F0010ED890143632
:101F80001536E806FBE1FB0EDBCFE9FFFC0EDBCFED
:101F9000EAFF1450EE261550ED2205D0030EF36E25
:101FA000060EF3CFDBFF05D0030EF36E060EF3CF64
:101FB000DBFF060EDB50146E080EE15C03E200D07E
:101FC000E16AE552E16E1450E552E7CFD9FF120005
:101FD000D9CFE6FFE1CFD9FF0D0EE1260B0EDB6A6C
:101FE000FB0EDBCFE9FFFC0EDBCFEAFFEECF14F0F8
:101FF000EFCF15F00A0E145C000E155801E2D0D197
:10200000010EE76EFD0EDBCFE9FFFE0EDBCFEAFF30
:10201000E750E926000EEA22EF50000EF350DE6E84
:10202000DD6A020EE76EFD0EDBCFE9FFFE0EDBCFB1
:10203000EAFFE750E926000EEA22EF50DF12DF2A1E
:10204000010E01E3DB2A030EE76EFD0EDBCFE9FF95
:10205000FE0EDBCFEAFFE750E926000EEA22EF5042
:10206000000EF350E66ED950020FE96EDACFEAFFA8
:10207000E552E750EE6EED6A040EE76EFD0EDBCF23
:10208000E9FFFE0EDBCFEAFFE750E926000EEA2269
:10209000EF50146E156AD950020FE96EDACFEAFFDD
:1020A0001450EE121550ED12050EE76EFD0EDBCF4B
:1020B000E9FFFE0EDBCFEAFFE750E926000EEA2239
:1020C000EF50000EF350E66ED950040FE96EDACFF0
:1020D000EAFFE552E750EE6EED6A060EE76EFD0E82
:1020E000DBCFE9FFFE0EDBCFEAFFE750E926000E6B
:1020F000EA22EF50146E156AD950040FE96EDACF58
:10210000EAFF1450EE121550ED12040EDB2A050EF4
:1021100001E3DB2A070EE76EFD0EDBCFE9FFFE0EC3
:10212000DBCFEAFFE750E926000EEA22EF50000E6F
:10213000F350E66ED950060FE96EDACFEAFFE552AA
:10214000E750EE6EED6A080EE76EFD0EDBCFE9FF9D
:10215000FE0EDBCFEAFFE750E926000EEA22EF5041
:10216000146E156AD950060FE96EDACFEAFF1450E3
:10217000EE121550ED12090EE76EFD0EDBCFE9FFF2
:10218000FE0EDBCFEAFFE750E926000EEA22080E3A
:10219000EFCFDBFF020EDBCF14F0030EDBCF15F029
:1021A000010E145C000E155801E2F5D0D950020F53
:1021B000E96EDACFEAFF7D0ED880EE54000EED54C2
:1021C00001E2E9D0060EDBCF16F0070EDBCF17F0E9
:1021D000010E165C000E175801E2DDD0D950060F33
:1021E000E96EDACFEAFF790ED880EE54000EED5496
:1021F00001E2D1D0020E086E096A060EDBCF0DF0A7
:10220000070EDBCF0EF066EC2DF006C018F007C00D
:1022100019F0080EDB501A6E1B6A1A50181802E1EA
:102220001B50191801E0B7D0010EE66E060EDBCF89
:10223000E6FF070EDBCFE6FF040EDBCFE6FF050E61
:10224000DBCFE6FF0A0EE76EFD0EDBCF14F0FE0ECD
:10225000DBCF15F0E7501426000E152214C0E6FF60
:1022600015C0E6FF50EC1EF0166E070EE15E16502C
:10227000E76E0C0EE7CFDBFFDB5001E07ED0FD0EFA
:10228000DBCF08F0FE0EDBCF09F0090E08C0DBFF44
:102290000A0E09C0DBFFFB0EDBCFE9FFFC0EDBCF34
:1022A000EAFFEE6AED6A090EDBCFE9FFDB2A0A0ED0
:1022B000DBCFEAFF01E3DB2A170EEF6EFB0EDBCF6D
:1022C000E9FFFC0EDBCFEAFFEE2A000EED22020E44
:1022D000086E096ADBCF0DF0030EDBCF0EF066EC63
:1022E0002DF00650E66E090EDBCFE9FFDB2A0A0E61
:1022F000DBCFEAFF01E3DB2AE552E750EF6EFB0E8E
:10230000DBCFE9FFFC0EDBCFEAFFEE2A000EED2269
:10231000E66A020EDBCFE6FF030EDBCFE6FFDECF81
:10232000E6FFDDCFE6FF090EDBCFE6FF0A0EDBCFCF
:10233000E6FF50EC1EF0146E070EE15E1450E76EDF
:102340000C0EE7CFDBFFDB5018E1020E086E096AC6
:10235000DBCF0DF0030EDBCF0EF066EC2DF006C0E8
:1023600014F007C015F0FB0EDBCFE9FFFC0EDBCF4E
:10237000EAFF1450EE261550ED220C0EDB500AE059
:102380000C0EDBCFE6FF1FEC21F0E552E76E0B0EE3
:10239000E7CFDBFF05D0030EF36E0B0EF3CFDBFFB1
:1023A0000B0EDB50146E0D0EE15C03E200D0E16A0F
:0E23B000E552E16E1450E552E7CFD9FF12005E
:0223BE00D9CF75
:1023C000E6FFE1CFD9FF090EE126070EDB6AFB0E1F
:1023D000DBCFE9FFFC0EDBCFEAFF050EEE1801E1D3
:1023E000ED5001E011D1010EE76EFD0EDBCFE9FFEC
:1023F000FE0EDBCFEAFFE750E926000EEA22EF509F
:10240000000EF350DE6EDD6A020EE76EFD0EDBCFCE
:10241000E9FFFE0EDBCFEAFFE750E926000EEA22D5
:10242000EF50DF12DF2A010E01E3DB2A030EE76E15
:10243000FD0EDBCFE9FFFE0EDBCFEAFFE750E9261A
:10244000000EEA22EF50000EF350E66ED950020F54
:10245000E96EDACFEAFFE552E750EE6EED6A040E60
:10246000E76EFD0EDBCFE9FFFE0EDBCFEAFFE750A4
:10247000E926000EEA22EF50146E156AD950020FB9
:10248000E96EDACFEAFF1450EE121550ED12020E8B
:10249000DBCF14F0030EDBCF15F0010E145C000E41
:1024A000155801E2ABD0020EDBCF16F0030EDBCFE6
:1024B00017F0D00E165C070E175801E39FD0FD0EE3
:1024C000DBCF08F0FE0EDBCF09F0050E08C0DBFF06
:1024D000060E09C0DBFFFB0EDBCFE9FFFC0EDBCFF6
:1024E000EAFFEE6AED6A050EDBCFE9FFDB2A060E96
:1024F000DBCFEAFF01E3DB2A010EEF6EFB0EDBCF41
:10250000E9FFFC0EDBCFEAFFEE2A000EED22020E01
:10251000DB50070B15E0020EDBCF14F0030EDBCF10
:1025200015F00F0B05E0D89015321432E806FBE1E8
:10253000010E1426000E1522040E14C0DBFF12D06B
:10254000080E146E156A020EDBCF08F0030EDBCF07
:1025500009F014C00DF015C00EF0F4EC2DF0040ECF
:1025600008C0DBFF050EDBCFE9FFDB2A060EDBCF61
:10257000EAFF01E3DB2A040EDBCFEFFFFB0EDBCF2C
:10258000E9FFFC0EDBCFEAFFEE2A000EED22E66A41
:10259000020EDBCFE6FF030EDBCFE6FFDECFE6FF6A
:1025A000DDCFE6FF050EDBCFE6FF060EDBCFE6FF55
:1025B000D9EC1EF0146E070EE15E1450E76E080EA3
:1025C000E7CFDBFFDB500BE0080EDBCFE6FF1FECB5
:1025D00021F0E552E76E070EE7CFDBFF0ED0040EC9
:1025E000DB50146E156AFB0EDBCFE9FFFC0EDBCF70
:1025F000EAFF1450EE261550ED2205D0030EF36EBF
:10260000070EF3CFDBFF05D0030EF36E070EF3CFFB
:10261000DBFF070EDB50146E090EE15C03E200D015
:10262000E16AE552E16E1450E552E7CFD9FF12009E
:10263000D9CFE6FFE1CFD9FF060EE126040EDB6A13
:10264000FB0EDBCFE9FFFC0EDBCFEAFF050EEE1839
:1026500001E1ED5001E091D0010EE76EFD0EDBCF00
:10266000E9FFFE0EDBCFEAFFE750E926000EEA2283
:10267000EF50000EF350DE6EDD6A020EE76EFD0EC7
:10268000DBCFE9FFFE0EDBCFEAFFE750E926000EC5
:10269000EA22EF50DF12DF2A010E01E3DB2A040EEB
:1026A000E76EFD0EDBCFE9FFFE0EDBCFEAFFE75062
:1026B000E926000EEA22EF505AE1030EE76EFD0E06
:1026C000DBCFE9FFFE0EDBCFEAFFE750E926000E85
:1026D000EA22EF50FF080EE0030EE76EFD0EDBCF9F
:1026E000E9FFFE0EDBCFEAFFE750E926000EEA2203
:1026F000EF503DE1030EDB6AE76EFD0EDBCFE9FF35
:10270000FE0EDBCFEAFFE750E926000EEA22EF508B
:10271000FF0806E1010EF36E020EF3CFDBFF02D0DD
:10272000020EDB6A010EE66EE66EE66ADECFE6FFBB
:10273000DDCFE6FFD950020FE66E000EDA20E66E1E
:10274000D9EC1EF0146E070EE15E1450E76E050E14
:10275000E7CFDBFFDB500AE0050EDBCFE6FF1FEC27
:1027600021F0E552E76E040EE7CFDBFF05D0030E44
:10277000F36E040EF3CFDBFF05D0030EF36E040EF1
:10278000F3CFDBFF040EDB50146E060EE15C03E2B8
:1027900000D0E16AE552E16E1450E552E7CFD9FF6F
:1027A0001200D9CFE6FFE1CFD9FF080EE126060ED1
:1027B000DB6AFB0EDBCFE9FFFC0EDBCFEAFF050E89
:1027C000D880EE54000EED5401E3EED0010EE76E1A
:1027D000FD0EDBCFE9FFFE0EDBCFEAFFE750E92677
:1027E000000EEA22EF50000EF350DE6EDD6A020E9C
:1027F000E76EFD0EDBCFE9FFFE0EDBCFEAFFE75011
:10280000E926000EEA22EF50DF12DF2A010E01E373
:10281000DB2A030EE76EFD0EDBCFE9FFFE0EDBCFFA
:10282000EAFFE750E926000EEA22EF50000EF350CF
:10283000E66ED950020FE96EDACFEAFFE552E750B3
:10284000EE6EED6A040EE76EFD0EDBCFE9FFFE0EC5
:10285000DBCFEAFFE750E926000EEA22EF50146EC4
:10286000156AD950020FE96EDACFEAFF1450EE1262
:102870001550ED12050EE76EFD0EDBCFE9FFFE0EE3
:10288000DBCFEAFFE750E926000EEA22040EEFCF85
:10289000DBFF020EDB50070B15E0020EDBCF14F05E
:1028A000030EDBCF15F00F0B05E0D8901532143274
:1028B000E806FBE1010E1426000E1522050E14C0D9
:1028C000DBFF12D0080E146E156A020EDBCF08F083
:1028D000030EDBCF09F014C00DF015C00EF0F4ECC0
:1028E0002DF0050E08C0DBFF020EDBCF14F0030E47
:1028F000DBCF15F0010E145C000E15584FE3D950D4
:10290000020FE96EDACFEAFFB00ED880EE54070E60
:10291000ED5444E3040EDB50F36E050EDB50F35C24
:102920003DE1010EE66E020EDBCFE6FF030EDBCFCC
:10293000E6FFDECFE6FFDDCFE6FF060EE76EFD0E1B
:10294000DBCF14F0FE0EDBCF15F0E7501426000E9F
:10295000152214C0E6FF15C0E6FFD9EC1EF0166E76
:10296000070EE15E1650E76E070EE7CFDBFFDB5088
:102970000BE0070EDBCFE6FF1FEC21F0E552E76E20
:10298000060EE7CFDBFF09D0FB0EDBCFE9FFFC0E25
:10299000DBCFEAFF050EEE6EED6A05D0030EF36E97
:1029A000060EF3CFDBFF05D0030EF36E060EF3CF5A
:1029B000DBFF060EDB50146E080EE15C03E200D074
:1029C000E16AE552E16E1450E552E7CFD9FF1200FB
:1029D000D9CFE6FFE1CFD9FFE652DF6AFD0EDB502B
:1029E00013E0010EF36EFD0EDBCFF4FFF350F45C49
:1029F0000BE3FD0EDB50146E156A153404E214501F
:102A0000F708000E155403E2020EDF6E5DD0FD0ED6
:102A1000DBCF41F1FE0EDB5001E045D00101160E87
:102A2000466F370E476F486B320E496F370E4A6F4D
:102A30004B6B280E436F380E446F456B480E4C6F3E
:102A4000370E4D6F4E6B4F6B506B516B380E526F94
:102A5000390E536F546B060E556F3A0E566F576B07
:102A6000940E586F3A0E596F5A6BF70EDBCFE6FF94
:102A7000D950F80FE96EFF0EDA20EA6EEECFE6FFCE
:102A8000EECFE6FFEECFE6FFEFCFE6FFFC0EDBCFAB
:102A9000E6FF41C1E6FFE9EC1AF0146E070EE15EB5
:102AA0001450DF6E02D0020EDF6EDF500DE1B1EC8C
:102AB0002CF0000903E1030EDF6E06D0FE0EDBCF23
:102AC00042F10001010E606FDF5000D0E552E55287
:102AD000E7CFD9FF1200D9CFE6FFE1CFD9FF030E30
:102AE000E126146AFE0EDB50145C01E3ECD0FE0E0E
:102AF000DB507F0801E2E7D0F29EFB0EDBCF14F043
:102B0000FC0EDBCF15F0FD0EDBCF16F014501510C8
:102B1000161001E18BD0DE6ADD6ADECF14F0DDCF66
:102B200015F0D890155004E6100E145C000E1558E0
:102B30006CE2DECFE9FFDDCFEAFFD890E936EA3676
:102B4000D890E936EA36610EE926000EEA22EECF89
:102B500014F0EECF15F0EECF16F0EFCF17F0000126
:102B600015501610171022E0FB0EDBCF18F0FC0EEC
:102B7000DBCF19F0FD0EDBCF1AF0DECFE9FFDDCFA2
:102B8000EAFFD890E936EA36D890E936EA36610E9F
:102B9000E926000EEA22EE52EE50181806E1EE5039
:102BA000191803E1EE501A1800E12AE1DECFE9FF1F
:102BB000DDCFEAFFD890E936EA36D890E936EA3632
:102BC000610EE926000EEA22FE0EDBCFEFFFDECF1C
:102BD000E9FFDDCFEAFFD890E936EA36D890E9364A
:102BE000EA36610EE926000EEA22EE52FB0EDBCF3A
:102BF000EEFFFC0EDBCFEEFFFD0EDBCFEEFF05D0D0
:102C0000DF2A010E01E3DB2A88D7D9CFE9FFDACF2B
:102C1000EAFF100EEE1801E1ED5002E0000E01D0C7
:102C2000040EE76E020EE7CFDBFF4BD0DE6ADD6AF3
:102C3000DECF14F0DDCF15F0D890155004E6100E5D
:102C4000145C000E15583BE2DECFE9FFDDCFEAFF52
:102C5000D890E936EA36D890E936EA36610EE926A8
:102C6000000EEA22EFCF14F0FE0EDB50145C22E1DE
:102C7000DECFE9FFDDCFEAFFD890E936EA36D8901B
:102C8000E936EA36610EE926000EEA22EF6ADECF67
:102C9000E9FFDDCFEAFFD890E936EA36D890E93689
:102CA000EA36610EE926000EEA22EE52EE6AEE6A7C
:102CB000EE6A05D0DF2A010E01E3DB2AB9D7020E46
:102CC000DB6AF28E04D0020EF36EF3CFDBFFDB5033
:102CD000146E030EE15C03E200D0E16AE552E16E9E
:102CE0001450E552E7CFD9FF1200D9CFE6FFE1CF6C
:102CF000D9FFE652DF6A000160050FE101014F5183
:102D00005011511109E007D051C1FBFF50C1FAFF2A
:102D100001014F51F96EF8DF02D0060EDF6EDF5071
:102D200000D0E552E552E7CFD9FF1200D9CFE6FF38
:102D3000E1CFD9FFE652DF6A000160050CE107D060
:102D400048C1FBFF47C1FAFF01014651F96EF8DFA8
:102D50000001606B02D0060EDF6EDF5000D0E5523E
:102D6000E552E7CFD9FF1200D9CFE6FFE1CFD9FF77
:102D7000E652000160510EE107D04BC1FBFF4AC192
:102D8000FAFF01014951F96EF8DF0001010E606F91
:102D9000DF6A06D0600502E1DF6A02D0060EDF6E50
:102DA000DF5000D0E552E552E7CFD9FF1200D9CF6E
:102DB000E6FFE1CFD9FF040EE126020EDB6A000137
:102DC000605102E0060EFBD0D950030FE66E000EF4
:102DD000DA20E66EC6EC2CF0E552E552010801E07F
:102DE000ECD0030EDB50030A01E1E6D0010A31E02A
:102DF000030A04E0010A01E0E0D0DFD0650EE66ED0
:102E0000010EE66E610EE66E010EE66E630EE66E74
:102E1000010EE66E07D04EC1FBFF4DC1FAFF010166
:102E20004C51F96EF8DF146E060EE15E1450E76E39
:102E3000020EE7CFDBFFDB500BE101014151635D87
:102E400002E0635105E1020EE66EB6EC2CF0E552AD
:102E5000B4D061C1E9FF62C1EAFFEFCF64F10101C3
:102E6000010E676FDE6ADD6ADECF14F0DDCF15F08C
:102E7000D890155004E6100E145C000E155857E259
:102E8000DECFE9FFDDCFEAFFD890E936EA36D89009
:102E9000E936EA36610EE926000EEA22EF5002E139
:102EA00046D040D0DECFE9FFDDCFEAFFD890E9364B
:102EB000EA36D890E936EA36610EE926000EEA22B3
:102EC000EF500101645D2EE1DECFE9FFDDCFEAFFC7
:102ED000D890E936EA36D890E936EA36610EE92626
:102EE000000EEA22EECF14F0EECF15F0EECF16F082
:102EF000EFCF17F0650EE66E010EE66E61C1E6FFDC
:102F000062C1E6FF07D017C0FBFF16C0FAFF000141
:102F10001550F96EF8DFE552E552E552E552010130
:102F2000676F05D0DF2A010E01E3DB2A9DD701017F
:102F3000635141E0675124E0656B666B800E64115C
:102F4000E66E65C114F066C115F0652B000E6623B0
:102F500061511424E96E62511520EA6EE552E75082
:102F6000EF6E65C114F066C115F0652B000E662387
:102F700061511424E96E62511520EA6E67C1EFFFBA
:102F800065C1E6FF66C1E6FF61C1E6FF62C1E6FF1B
:102F900041C1E6FF07D045C1FBFF44C1FAFF010173
:102FA0004351F96EF8DF146E050EE15E1450E76EC2
:102FB000020EE7CFDBFF01D000D0000E00D0146E70
:102FC000040EE15C02E2E16AE552E16E1450E55262
:062FD000E7CFD9FF12005B
:0A2FD600D9CFE6FFE1CFD9FF050EC9
:102FE000E126FE0EDB50180802E2000E5CD0FE0E59
:102FF000DBCFD2F0DF6A0001D251DF5C0AE2DF50A2
:10300000EA6ABA0FE96E000EEA228EC1EFFFDF2AEC
:10301000F2D7A20ED86F000ED96F010EDB6A0C0E2C
:10302000F36E010EDBCFF4FFF350F45C39E2DF6A9C
:103030000B0EDF5C30E2DF50EA6A840FE96E010EAE
:10304000EA22EF508009E66EDF50EA6A840FE96EEB
:10305000010EEA22EF508009E66E7CD9E552E55276
:10306000C80EF36E030EF3CFDBFF040EDB6A030E14
:10307000DBCF14F0DB06040EDBCF15F001E2DB063C
:103080001450151006E0080EE66E0AEC2EF0E5521C
:10309000EED7DF2ACDD70001D32B010EDB2ABFD715
:1030A000D36B010E00D0146E050EE15C02E2E16A02
:1030B000E552E16E1450E552E7CFD9FF120000014E
:1030C000A151010A1EE0010A01E04FD00C0ED325E8
:1030D000EA6AD825E96ED951EA22EF50E66ED3515B
:1030E000EA6AD825E96ED951EA22EF50E66E32D964
:1030F000E552E5520001D32B0C0ED35D01E3D36BF7
:1031000034D00C0ED325EA6AD825E96ED951EA22CB
:10311000EF50E66ED351EA6AD825E96ED951EA221A
:10312000EF50E66E17D9E552E5520001D32B0C0E95
:10313000D35D01E3D36BD42B000ED523D651D45DE0
:10314000D751D55911E3D46BD56BA20ED81902E132
:10315000000ED91905E1BA0ED86F000ED96F04D050
:10316000A20ED86F000ED96F00D01200D9CFE6FFA3
:10317000E1CFD9FFE652DF6ADF6A0001D251DF5C9E
:1031800038E2DF50E76EFD0EDBCFE9FFFE0EDBCF4E
:10319000EAFFE750E926000EEA22EF50200809E195
:1031A000DF50EA6AA20FE96E000EEA228EC1EFFF3D
:1031B0001ED0DF50E76EFD0EDBCFE9FFFE0EDBCF4A
:1031C000EAFFE750E926000EEA22EF50D00FEA6A44
:1031D000840FE96E010EEA22EF50E66EDF50EA6AD4
:1031E000A20FE96E000EEA22E552E750EF6EDF2AE9
:1031F000C4D7D36B010E00D0E552E552E7CFD9FF1B
:103200001200D9CFE6FFE1CFD9FFE652DF6ADF6ACD
:103210000001D251DF5C19E2DF50E76EFD0EDBCF1B
:10322000E9FFFE0EDBCFEAFFE750E926000EEA22B7
:10323000EF50E66EDF50EA6AA20FE96E000EEA2256
:10324000E552E750EF6EDF2AE3D7D36BE552E55244
:10325000E7CFD9FF1200D9CFE6FFE1CFD9FFE65281
:10326000DF6AFE0EDBCF14F00001D251D880145477
:1032700002E2000E2DD0FD0EDBCFE6FFD8D8E552DE
:10328000000902E1000E24D0FD0EDB5020080AE107
:10329000FE0EDB50EA6AA20FE96E000EEA228EC132
:1032A000EFFF14D0FD0EDB50D00FEA6A840FE96EF9
:1032B000010EEA22EF50E66EFE0EDB50EA6AA20F24
:1032C000E96E000EEA22E552E750EF6E010E00D0E3
:1032D000E552E552E7CFD9FF1200D9CFE6FFE1CFA3
:1032E000D9FFFD0EDBCFD6F0FE0EDBCFD7F0010EFF
:1032F0000F0B000105E0D890D733D633E806FBE189
:103300000001D46BD56B010EA16FE552E7CFD9FF59
:1033100012000001A20ED86F000ED96FA16B12002F
:10332000D9CFE6FFE1CFD9FFE652DF6A0001D251E3
:10333000DF5C0AE2DF50EA6AA20FE96E000EEA22C1
:103340008EC1EFFFDF2AF2D7D36BE552E552E7CF0C
:10335000D9FF1200D9CFE6FFE1CFD9FFE652010E27
:10336000DF6E806A816A8290829282948296FE0EDB
:10337000DB50876EFD0EDB50886E080E0001D35DBA
:103380000CE2D351070B04E0DF46DF90E806FCE1D6
:10339000DF50806EDF50816E12D0D3510B0A0DE0EA
:1033A000010A09E0030A05E0010A01E008D0828071
:1033B00006D0828204D0828402D0828600D0E55278
:1033C000E552E7CFD9FF1200D9CFE6FFE1CFD9FF11
:1033D000020EE126FE0EDB50DF6EFE0EDBCFE6FFB7
:1033E000FD0EDB50E552E724DF5C17E2DF50EA6AAE
:1033F000A20FE96E000EEA22010EEFCFDBFFDB50D9
:103400008009E66EDF50EA6AA20FE96E000EEA223A
:10341000E552E750EF6EDF2AE0D7020EE15C02E2F0
:10342000E16AE552E16EE552E7CFD9FF1200D9CF4C
:10343000E6FFE1CFD9FFE652DF6AFE0EDB5020083F
:1034400003E1010EDF6E0ED0300EF36EFE0EDBCF09
:10345000F4FFF350F45C06E3FE0EDB50390802E3A0
:10346000010EDF6EDF5000D0E552E552E7CFD9FF05
:103470001200D9CFE6FFE1CFD9FF020EE126DF6AC5
:10348000010EDB6ADF6AFB0EDB50DF5C02E2DF2A43
:10349000FAD7FC0EDB50DF6EFB0EDBCFE6FFFC0E37
:1034A000DB50E552E724DF5C3BE2DF50E76EFD0EC8
:1034B000DBCFE9FFFE0EDBCFEAFFE750E926000E87
:1034C000EA22EF50200809E1DF50EA6AA20FE96E14
:1034D000000EEA228EC1EFFF1FD0010EDB50E76E17
:1034E000FD0EDBCFE9FFFE0EDBCFEAFFE750E9265A
:1034F000000EEA22EF50D00FEA6A840FE96E010E47
:10350000EA22EF50E66EDF50EA6AA20FE96E000E83
:10351000EA22E552E750EF6EDF2A010EDB2ABCD724
:103520000001D36B010E146E020EE15C03E200D0C9
:10353000E16AE552E16E1450E552E7CFD9FF12007F
:10354000D9CFE6FFE1CFD9FFE652FD0EDBCFD6F0B3
:10355000FE0EDBCFD7F0010E0F0B000105E0D89077
:10356000D733D633E806FBE10001D46BD56BFC0EF4
:10357000DB50DA6FDB6BDF6AD251DF5C1CE2DF50BD
:10358000146E156ADA51141802E1DB51151811E0B6
:10359000DF50EA6AA20FE96E000EEA22EF50E66EF3
:1035A000DF50EA6ABA0FE96E000EEA22E552E750F0
:1035B000EF6EDF2AE1D7BA0EDA25E96E000EDB21C5
:1035C000EA6EEF6A010EA16FE552E552E7CFD9FF2F
:0235D0001200E7
:0E35D200D9CFE6FFE1CFD9FF050EE126DF6A73
:1035E0009D9AF80EDBCFE6FF080EE66ED950F90F74
:1035F000E96EFF0EDA20EA6EEECFE6FFEECFE6FFD1
:10360000EECFE6FFEFCFE6FFFD0EDBCFE6FFB4EC3B
:1036100024F0146E070EE15E1450010803E0030E5F
:10362000DF6E6AD0D950F90FE96EFF0EDA20EA6E2C
:10363000D880800EEE54250EEE54000EEE54000E8F
:10364000EE540FE2A30EF36E010EF3CFDBFFBB0EC1
:10365000F36E020EF3CFDBFF030EDB6A040EDB6AB0
:103660003DD0D950F90FE96EFF0EDA20EA6E600EF8
:10367000EE1806E1090EEE1803E1EE5001E1EE50FE
:103680000FE1CF0EF36E010EF3CFDBFF710EF36E81
:10369000020EF3CFDBFF030EDB6A040EDB6A1ED0E3
:1036A000D950F90FE96EFF0EDA20EA6E800EEE189F
:1036B00006E1250EEE1803E1EE5001E1EE500EE1B9
:1036C000E70EF36E010EF3CFDBFFB80EF36E020EC2
:1036D000F3CFDBFF030EDB6A040EDB6A010EDBCFE8
:1036E000E6FF020EDBCFE6FF92EC2AF0E552E55250
:1036F000010802E0030EDF6E9D8ADF50146E050E96
:10370000E15C03E200D0E16AE552E16E1450E5525B
:10371000E7CFD9FF12009D9A0101A46BE66A010E62
:10372000E66E99EC24F0E552E552A9EC2AF09D8A68
:1037300012009D9AE66AE66A99EC24F0E552E55299
:10374000B4EC2AF09D8A1200D9CFE6FFE1CFD9FF71
:10375000040EE126DF6A010EDB6A9D9A0201FA0E71
:10376000FE5D000EFF5902E3050E52D0040EFE5D11
:10377000000EFF5946E3FEC2E6FFFFC2E6FF000E61
:10378000E66E020EE66E14EC2AF0E552E552E552C2
:10379000E552020EF3CFDBFF030EF4CFDBFFD9506F
:1037A000020FE96EDACFEAFFEE50ED1029E1FD0ECF
:1037B000DBCFE9FFFE0EDBCFEAFF00C2EFFFFEC268
:1037C00014F0FFC215F01406000E155A020E145E16
:1037D000000E155AF90EDBCFE9FFFA0EDBCFEAFF38
:1037E00014C0EEFF15C0EDFFFB0EDBCFE9FFFC0EB2
:1037F000DBCFEAFF010EEE6E020EED6E010EDF6E04
:1038000003D0DE52050EDD6E9D8A010EDB5000D026
:10381000146E040EE15C02E2E16AE552E16E1450BE
:10382000E552E7CFD9FF1200D9CFE6FFE1CFD9FFAC
:10383000030EE126DF6A9D9A0101A4056CE1FC0EEE
:10384000DBCFFAF2FD0EDBCFFBF20201010EFA5FD5
:10385000000EFB5B010EFC6FFD6BFE0EDB50FAC22F
:10386000E9FFFBC2EAFFEF6EFA0EDBCF08F0FB0EBA
:10387000DBCF09F00850FC270950FD23FCC2E6FF0E
:10388000FDC2E6FFFAC2E6FFFBC2E6FF14EC2AF037
:10389000E552E552E552E552DE52F3CFDEFFF4CFBA
:1038A000DDFFDD52FF0EE76E010EDBCF14F0020EDE
:1038B000DBCF15F0E7501416156A0201FCC2E9FFD0
:1038C000FDC2EAFFFC2B000EFD23000EE926020ECE
:1038D000EA2214C0EFFF010EDBCF14F0020EDBCFA3
:1038E00015F015C014F0156AFCC2E9FFFDC2EAFF2D
:1038F000FC2B000EFD23000EE926020EEA2214C066
:10390000EFFF0101010EA36FE66EE66A99EC24F069
:10391000E552E55202D0050EDF6E9D8ADF50146E2F
:10392000030EE15C03E200D0E16AE552E16E14505F
:10393000E552E7CFD9FF1200D9CFE6FFE1CFD9FF9B
:10394000020EE126DF6A0101A35102E0000E4FD012
:10395000D950010FE66E000EDA20E66E39EC25F044
:10396000E552E5520101A451020A24E0030A0BE0EA
:10397000020A06E0030A01E038D0A9EC2AF035D0AB
:10398000A9EC2AF032D00201FE6BFF6BFEC2E9FF08
:10399000FFC2EAFFFE2B000EFF23000EE926020EF7
:1039A000EA22010EDBCFEFFF0101020EA46FA9ECAA
:1039B0002AF01BD00201FA0EFE5D000EFF590FE245
:1039C000FEC2E9FFFFC2EAFFFE2B000EFF23000E3E
:1039D000E926020EEA22010EDBCFEFFF03D0010140
:1039E000030EA46FA9EC2AF000D0DF5000D0146EB3
:1039F000020EE15C02E2E16AE552E16E1450E5522A
:103A0000E7CFD9FF1200D9CFE6FFE1CFD9FFE652C9
:103A1000DF6A0101A40502E0000E37D0A351010ABC
:103A20000BE0010A01E02FD0E66A010EE66E99EC88
:103A300024F0E552E55227D00201000ED880FC5553
:103A4000000EFD5510E2FAC2E9FFFBC2EAFFEF509B
:103A5000E66E1EEC25F0E5520201FA2B000EFB2368
:103A6000FC07FD5BE9D7030EE66EB6EC2CF0E552E1
:103A7000DF6EE66A010EE66E99EC24F0E552E5523F
:103A80000101A36B00D0DF5000D0E552E552E7CF33
:103A9000D9FF1200D9CFE6FFE1CFD9FFE652DF6AA6
:103AA0000101A451030A12E0010A09E0020A01E03F
:103AB0000ED0E66AB6EC2CF0E552DF6E08D0010EAF
:103AC000E66EB6EC2CF0E552DF6E01D000D0B4EC1F
:103AD0002AF00101010EA46FDF5000D0E552E5523B
:063AE000E7CFD9FF120040
:0A3AE600D9CFE6FFE1CFD9FF070EAC
:103AF000E126020EDB6A4B0EF36E030EF3CFDBFF03
:103B0000010EF36E040EF3CFDBFF050EDB6AE66AEF
:103B1000020EDBCF14F0030EDBCF15F0166A176A26
:103B200014C0E6FF15C0E6FF16C0E6FF17C0E6FFAB
:103B3000E66A040EDBCFE6FFE66AE8EC14F0186EE6
:103B4000080EE15E1850E76E060EE7CFDBFF96EC3D
:103B500016F0E76E060EE7CFDBFF070EE15C02E230
:103B6000E16AE552E16EE552E7CFD9FF1200D9CF05
:103B7000E6FFE1CFD9FFE6520101080501E07ED062
:103B8000DF6A080EDF5C76E2020EDF24EA6A1D0FB0
:103B9000E96E010EEA22EF50E66EDF50EA6A000F8E
:103BA000E96E010EEA22E552E750EF6E0A0EDF24BD
:103BB000EA6A1D0FE96E010EEA22EF50E66EDF5051
:103BC000EA6A0B0FE96E010EEA22E552E750EF6E4A
:103BD000040EDF5C12E21A0EDF24EA6A1D0FE96EA2
:103BE000010EEA22EF50E66EDF50EA6A190FE96E25
:103BF000010EEA22E552E750EF6E030EDF5C24E28D
:103C0000120EDF24EA6A1D0FE96E010EEA22EF5060
:103C1000E66EDF50EA6A130FE96E010EEA22E55202
:103C2000E750EF6E160EDF24EA6A1D0FE96E010EF3
:103C3000EA22EF50E66EDF50EA6A160FE96E010ED7
:103C4000EA22E552E750EF6E020EDF5C11E2DF5030
:103C5000EA6A1D0FE96E010EEA22EF50E66EDF50B0
:103C6000EA6A090FE96E010EEA22E552E750EF6EAB
:103C7000DF2A87D7B2D80DD90101086BE552E5528A
:103C8000E7CFD9FF1200D9CFE6FFE1CFD9FFE65247
:103C9000DF6ADF5000D0E552E552E7CFD9FF1200CE
:103CA000D9CFE6FFE1CFD9FF040EE126FB0EDB50B2
:103CB000DF6E020E086E096AF90EDBCF0DF0FA0E08
:103CC000DBCF0EF066EC2DF0010E06C0DBFF020E1E
:103CD000DB6A030EDB6AF80EDB5027E0010A01E025
:103CE00059D0010EDB5000081CE2FD0EDBCFE9FFCE
:103CF000DB2AFE0EDBCFEAFF01E3DB2AEF50E66EA4
:103D0000030EDBCFF3FFDB2AF350EA6A1D0FE96EE7
:103D1000010EEA22E552E750EF6EDF2A010EDB06C4
:103D2000E0D70101010E086F35D0010EDB5000080D
:103D300030E2FD0EDBCFE9FFDB2AFE0EDBCFEAFF30
:103D400001E3DB2A410EEF6EFD0EDBCFE9FFDB2A3C
:103D5000FE0EDBCFEAFF01E3DB2A420EEF6EFD0E23
:103D6000DBCFE9FFDB2AFE0EDBCFEAFF01E3DB2A34
:103D7000430EEF6EFD0EDBCFE9FFDB2AFE0EDBCF3D
:103D8000EAFF01E3DB2A440EEF6EDF2A010EDB06B9
:103D9000CCD700D0020EDB50146E040EE15C03E2BF
:103DA00000D0E16AE552E16E1450E552E7CFD9FF49
:103DB0001200D9CFE6FFE1CFD9FF010E00D0E552C6
:103DC000E7CFD9FF1200D9CFE6FFE1CFD9FF010E2F
:103DD00000D0E552E7CFD9FF1200030EE66EE66A87
:103DE000130EE66E010EE66E39EC1AF0E552E5525E
:103DF000E552E552030EE66EE66E160EE66E010E15
:103E0000E66E39EC1AF0E552E552E552E552020E43
:103E1000E66E060EE66E090EE66E010EE66E39ECF3
:103E20001AF0E552E552E552E552080EE66E0C0E28
:103E3000E66E0B0EE66E010EE66E39EC1AF0E552F8
:103E4000E552E552E552040EE66E080EE66E190ED6
:103E5000E66E010EE66E39EC1AF0E552E552E552D7
:103E6000E552010EE66EE66EE4EC19F0E552E5521D
:103E7000010EE66E040EE66EE4EC19F0E552E55232
:103E8000010EE66E0A0EE66EE4EC19F0E552E5521C
:103E90001200E66A16EC07F0E55201013B6B080ED2
:103EA0003C6F000EE66E010EE66E12EC2CF0E55251
:103EB000E552F3CF3FF10101000E3D6F010E3E6F61
:103EC000406B3B0EE66E010EE66EE66ADAEC01F040
:083ED000E552E552E552120033
:083ED800D9CFE6FFE1CFD9FFCD
:103EE0000A0EE126F90EDB50E66ED950080FE96E96
:103EF000DACFEAFFE552E750EE6EED6AFA0EDB50DC
:103F0000080801E2F1D0080E146E156AFB0EDBCF33
:103F100008F0FC0EDBCF09F014C00DF015C00EF058
:103F2000F4EC2DF0040E08C0DBFF050E09C0DBFF2A
:103F3000FB0EDBCF16F0FC0EDBCF17F0080E086E81
:103F4000096A040EDBCF0DF0050EDBCF0EF066EC38
:103F50002DF00650165C146E07501758156E060E9D
:103F600014C0DBFF070E15C0DBFF060EDBCF14F01D
:103F7000D950080FE96EDACFEAFF1450E85005E097
:103F8000D890EE36ED36E806FBE1FA0EDB50166E01
:103F9000010E165204E0E846FE0B1606FCE1FF0F88
:103FA000146E156A14BE1568020E14C0DBFF030EF2
:103FB00015C0DBFFFB0EDBCF16F0FC0EDBCF17F0DE
:103FC000080E086E096A040EDBCF0DF0050EDBCF7C
:103FD0000EF066EC2DF00650165C146E0750175864
:103FE000156ED950020FE96EDACFEAFF1450E8508F
:103FF00005E0D890EE36ED36E806FBE1040EDBCFA7
:1040000014F0050EDBCF15F0FD0EDB501424E96E25
:10401000FE0EDB501520EA6EEF50DE6EDD6A010EFB
:10402000E76E040EDBCF14F0050EDBCF15F0E75082
:104030001426000E1522FD0EDB501424E96EFE0E30
:10404000DB501520EA6EEF50000EF350DF12020E27
:10405000DB1C186E030EDB1C196EDE501814166E76
:10406000DD501914176E080EDB501610146E090E71
:10407000DB501710156E14C0DEFF15C0DDFFDECF5C
:1040800016F0DDCF17F0FF0E1616000E1716040EF1
:10409000DBCF14F0050EDBCF15F0FD0EDB50142442
:1040A000E96EFE0EDB501520EA6E16C0EFFFDECF84
:1040B00016F0DDCF17F017C016F0176A010EE76E85
:1040C000040EDBCF14F0050EDBCF15F0E7501426FD
:1040D000000E1522FD0EDB501424E96EFE0EDB509F
:1040E0001520EA6E16C0EFFF0A0EE15C02E2E16AFB
:1040F000E552E16EE552E7CFD9FF1200D9CFE6FFD6
:10410000E1CFD9FF080EE126146E156AFB0EDBCF56
:1041100008F0FC0EDBCF09F014C00DF015C00EF056
:10412000F4EC2DF0040E08C0DBFF050E09C0DBFF28
:10413000FB0EDBCF16F0FC0EDBCF17F0080E086E7F
:10414000096A040EDBCF0DF0050EDBCF0EF066EC36
:104150002DF00650165C146E07501758156E060E9B
:1041600014C0DBFF070E15C0DBFFFA0EDB50166E26
:10417000010E165204E0E846FE0B1606FCE1FF0FA6
:10418000146E156A14BE1568020E14C0DBFF030E10
:1041900015C0DBFF040EDBCF14F0050EDBCF15F0EE
:1041A000FD0EDB501424E96EFE0EDB501520EA6E86
:1041B000EF50DE6EDD6A010EE76E040EDBCF14F009
:1041C000050EDBCF15F0E7501426000E1522FD0E6C
:1041D000DB501424E96EFE0EDB501520EA6EEF5022
:1041E000000EF350DF12060EDBCF14F0D9CFE9FF3B
:1041F000DACFEAFF14500F0B06E0EC52D890ED3204
:10420000EF32E806FAE1020EDBCF14F0030EDBCF4B
:1042100015F0D9CFE9FFDACFEAFF1450EE161550AA
:10422000ED16DF50146E080EE15C03E200D0E16A87
:10423000E552E16E1450E552E7CFD9FF1200D9CF15
:10424000E6FFE1CFD9FFE652FE0EDB50070A0CE095
:10425000060A07E0010A03E0040EDF6E08D0DF6AF9
:1042600006D0020EDF6E03D0060EDF6E00D0DF50E8
:0C42700000D0E552E552E7CFD9FF120064
:04427C00DACFE4FFB2
:10428000E2CFDAFFE9CFE4FFEACFE4FFF6CFE4FFC5
:10429000F7CFE4FFF5CFE4FFF3CFE4FFF4CFE4FF83
:1042A000FACFE4FF00EE00F0140EE80403E3EECFD3
:1042B000E4FFFBD700EE14F00A0EE80403E3EECFB0
:1042C000E4FFFBD7E652F2940101762B000E772330
:1042D000782B79237A2B7B237C2B7D237E077F5BB6
:1042E0007F3504E27E510008000E7F5508E3802BE5
:1042F000000E812382238323C80E7E6F7F6B6A5159
:104300006B1107E005D06BC1FAFF01016A51F96E2C
:10431000FADF68C1E6FF69C1E6FFBCEC2DF0E552AB
:10432000E552E55200EE1DF00A0EE80403E3E5CF86
:10433000EDFFFBD700EE13F0140EE80403E3E5CF26
:10434000EDFFFBD7E5CFFAFFE5CFF4FFE5CFF3FFB5
:10435000E5CFF5FFE5CFF7FFE5CFF6FFE5CFEAFFC5
:10436000E5CFE9FFE5CFDAFF1100DACFE4FFE2CFD6
:10437000DAFFE9CFE4FFEACFE4FFF6CFE4FFF7CFBF
:10438000E4FFF5CFE4FFF3CFE4FFF4CFE4FFFACF8F
:10439000E4FF00EE00F0140EE80403E3EECFE4FFC8
:1043A000FBD700EE14F00A0EE80403E3EECFE4FFBF
:1043B000FBD7E6529E906CC1E6FF6DC1E6FFA0EC14
:1043C0002DF0E552E55201016E516F1107E005D065
:1043D0006FC1FAFF01016E51F96EFADFE55200EE8E
:1043E0001DF00A0EE80403E3E5CFEDFFFBD700EE76
:1043F00013F0140EE80403E3E5CFEDFFFBD7E5CFA0
:10440000FAFFE5CFF4FFE5CFF3FFE5CFF5FFE5CF0A
:10441000F7FFE5CFF6FFE5CFEAFFE5CFE9FFE5CF10
:10442000DAFF1100DACFE4FFE2CFDAFFE9CFE4FFF1
:10443000EACFE4FFF6CFE4FFF7CFE4FFF5CFE4FFE8
:10444000F3CFE4FFF4CFE4FFFACFE4FF00EE00F097
:10445000140EE80403E3EECFE4FFFBD700EE14F004
:104460000A0EE80403E3EECFE4FFFBD7E652A19285
:1044700070C1E6FF71C1E6FFA0EC2DF0E552E552F8
:1044800001017251731107E005D073C1FAFF0101F8
:104490007251F96EFADFE55200EE1DF00A0EE804E3
:1044A00003E3E5CFEDFFFBD700EE13F0140EE804B5
:1044B00003E3E5CFEDFFFBD7E5CFFAFFE5CFF4FF50
:1044C000E5CFF3FFE5CFF5FFE5CFF7FFE5CFF6FF4B
:1044D000E5CFEAFFE5CFE9FFE5CFDAFF1100D9CF5D
:1044E000E6FFE1CFD9FF9F0EE66ED8EC2DF0E55246
:1044F000FD0EDBCF68F1FE0EDBCF69F1FB0EDBCFEB
:104500006AF1FC0EDBCF6BF1FD0EDBCFE6FFFE0E9A
:10451000DBCFE6FFBCEC2DF0E552E552E552E7CFEC
:10452000D9FF1200D9CFE6FFE1CFD9FFC50EE66E65
:1045300026EC2DF0E552FD0EDBCFE6FFFE0EDBCFC5
:10454000E6FFA0EC2DF0E552E5529F80FD0EDBCF9B
:104550006CF1FE0EDBCF6DF1FB0EDBCF6EF1FC0ECE
:10456000DBCF6FF1E552E7CFD9FF1200D9CFE6FFDD
:10457000E1CFD9FFCD0EE66E05EC2DF0E552FD0E34
:10458000DBCFE6FFFE0EDBCFE6FF84EC2DF0E5523D
:10459000E552FD0EDBCF70F1FE0EDBCF71F1FB0EAD
:1045A000DBCF72F1FC0EDBCF73F1E552E7CFD9FF21
:1045B0001200D9CFE6FFE1CFD9FF040EE126F29A2F
:1045C00080C1DFFF010E81C1DBFF020E82C1DBFF74
:1045D000030E83C1DBFFF28ADECF06F0DECF07F0E9
:1045E000DECF08F0DDCF09F0DD52DD52040EE15CD4
:1045F00003E200D0E16AE552E16EE552E7CFD9FF70
:024600001200A6
:0E46020000000000000000002020202000002A
:10461000200050505000000000005050F850F8505A
:1046200050002078A07028F02000C0C810204098CA
:1046300018006090A040A890680060204000000032
:10464000000010204040402010004020101010209A
:1046500040000020A870A8200000002020F82020A2
:10466000000000000000301020000000007C00006E
:104670000000000000000060600000081020408082
:10468000000030486878584830002060A020202082
:10469000F800304808081020780070080830080832
:1046A000700010305090F8101000784040700808EA
:1046B00070003048407048483000F80810204040F2
:1046C00040003048483048483000304848380848B2
:1046D00030000060600060600000006060006020EA
:1046E000400008102040201008000000F800F800EA
:1046F00000004020100810204000708808102000A2
:10470000200070880868A8A8700030484878484899
:104710004800704848704848700038404040404069
:104720003800704848484848700078404070404021
:104730007800784040704040400030484058484839
:104740003000484848784848480070202020202001
:1047500070007020202020A0600048506040605011
:104760004800404040404040700088D8A8A8888851
:1047700088004848687858484800304848484848C1
:104780003000704848704040400030484848685009
:104790002800704848704848480030484030084871
:1047A0003000F82020202020200048484848484871
:1047B00030008888888888502000888888A8A8A821
:1047C0005000484848304848480050505050202039
:1047D0002000780818306040780070404040404029
:1047E00070008850F820F820200070101010101071
:1047F0007000205088000000000000000000000051
:10480000F8004020100000000000000070087888C8
:1048100078008080B0C88888F000000070808088B0
:104820007000080868988888780000007088F88010
:104830007000304840E040404000007888887808A8
:1048400070008080B0C88888880020006020202008
:104850007000080008080848300040404850605088
:10486000480060202020202070000000D0A8A888E8
:1048700088000000B0C88888880000007088888898
:1048800070000000F088F0808000000068987808D0
:1048900008000000B0C880808000000070807008B0
:1048A000F0004040E0404048300000008888889890
:1048B0006800000088888850200000008888A8A828
:1048C0005000000088502050880000008888780838
:1048D00070000000F8102040F80010202040202038
:1048E0001000202020202020200020101008101070
:1048F0002000002010F810200000002040F8402088
:1049000000003048483000000000304848300000C7
:104910000000081838783818080000008005C00426
:10492000E003F002F80100000804180338027801DF
:02493000F8008D
:0E493200D9CFE6FFE1CFD9FFFE0EDB5002E148
:10494000AB9801D0AB88FD0EDB5001E109D007D058
:1049500057C1FBFF56C1FAFF01015551F96EF8DF4F
:10496000E552E7CFD9FF1200D9CFE6FFE1CFD9FF5B
:10497000050EE1263C0EDF6ED950FA0FE96EFF0EF0
:10498000DA20EA6EEE2A000EEE22EE22EE22D95056
:10499000FA0FE96EFF0EDA20EA6E040EE76ED89089
:1049A000EF36010EEB36020EEB36030EEB36E70662
:1049B000F6E1146A480E156EE80E166E010E176EBB
:1049C00014C006F015C007F016C008F017C009F0B3
:1049D000FA0EDBCF0BF0FB0EDBCF0CF0FC0EDBCFC7
:1049E0000DF0FD0EDBCF0EF0E1EC2CF0010E06C059
:1049F000DBFF020E07C0DBFF030E08C0DBFF040E67
:104A000009C0DBFF010EDBCFE6FF020EDBCFE6FFC6
:104A1000DFCFE6FF6FEC2CF0E552E552E5529F8ABE
:104A2000010E146E050EE15C03E200D0E16AE5526E
:104A3000E16E1450E552E7CFD9FF1200D9CFE6FF5F
:104A4000E1CFD9FF8686500EE66E45EC2EF0E5529A
:104A5000FE0EDB50AD6EACA2FED78696500EE66E13
:104A600045EC2EF0E552010E00D0E552E7CFD9FF1C
:104A70001200D9CFE6FFE1CFD9FFE65247EC2DF087
:104A8000DF6EFD0EDBCFE9FFFE0EDBCFEAFFDFCFEF
:104A9000EFFF9E9A010E00D0E552E552E7CFD9FF15
:104AA0001200DACFE4FFE2CFDAFFE9CFE4FFEACF8A
:104AB000E4FFF6CFE4FFF7CFE4FFF5CFE4FFF3CF59
:104AC000E4FFF4CFE4FFFACFE4FFFBCFE4FF00EE16
:104AD00000F0140EE80403E3EECFE4FFFBD700EE92
:104AE00014F00A0EE80403E3EECFE4FFFBD7E6522E
:104AF00007D057C1FBFF56C1FAFF01015551F96EAE
:104B0000F8DFE55200EE1DF00A0EE80403E3E5CFFE
:104B1000EDFFFBD700EE13F0140EE80403E3E5CF3E
:104B2000EDFFFBD7E5CFFBFFE5CFFAFFE5CFF4FFC5
:104B3000E5CFF3FFE5CFF5FFE5CFF7FFE5CFF6FFD4
:104B4000E5CFEAFFE5CFE9FFE5CFDAFF1100DACFE5
:104B5000E4FFE2CFDAFFE9CFE4FFEACFE4FFF6CFEC
:104B6000E4FFF7CFE4FFF5CFE4FFF3CFE4FFF4CFAA
:104B7000E4FFFACFE4FFFBCFE4FF00EE00F0140EF9
:104B8000E80403E3EECFE4FFFBD700EE14F00A0ED7
:104B9000E80403E3EECFE4FFFBD7E65207D054C1AD
:104BA000FBFF53C1FAFF01015251F96EF8DFE552E4
:104BB00000EE1DF00A0EE80403E3E5CFEDFFFBD79E
:104BC00000EE13F0140EE80403E3E5CFEDFFFBD78E
:104BD000E5CFFBFFE5CFFAFFE5CFF4FFE5CFF3FF2D
:104BE000E5CFF5FFE5CFF7FFE5CFF6FFE5CFEAFF2D
:0A4BF000E5CFE9FFE5CFDAFF110081
:064BFA00D9CFE6FFE1CF78
:104C0000D9FF090EE126070EDB6AFB0EDBCFE9FFB9
:104C1000FC0EDBCFEAFF050EEE1801E1ED5001E0DE
:104C200010D1010EE76EFD0EDBCFE9FFFE0EDBCFEC
:104C3000EAFFE750E926000EEA22EF50000EF3509B
:104C4000DE6EDD6A020EE76EFD0EDBCFE9FFFE0EC3
:104C5000DBCFEAFFE750E926000EEA22EF50DF1231
:104C6000DF2A010E01E3DB2A030EE76EFD0EDBCF28
:104C7000E9FFFE0EDBCFEAFFE750E926000EEA224D
:104C8000EF50000EF350E66ED950020FE96EDACF06
:104C9000EAFFE552E750EE6EED6A040EE76EFD0E98
:104CA000DBCFE9FFFE0EDBCFEAFFE750E926000E7F
:104CB000EA22EF50146E156AD950020FE96EDACF6E
:104CC000EAFF1450EE121550ED12020EDBCF14F075
:104CD000030EDBCF15F0010E145C000E155801E237
:104CE000AAD0020EDBCF16F0030EDBCF17F0D00EEA
:104CF000165C070E175801E39ED0FD0EDBCF08F0BF
:104D0000FE0EDBCF09F0050E08C0DBFF060E09C062
:104D1000DBFFFB0EDBCFE9FFFC0EDBCFEAFFEE6A29
:104D2000ED6A050EDBCFE9FFDB2A060EDBCFEAFFDB
:104D300001E3DB2A020EEF6EFB0EDBCFE9FFFC0E78
:104D4000DBCFEAFFEE2A000EED22020EDB50070B4E
:104D500015E0020EDBCF14F0030EDBCF15F00F0BC6
:104D600005E0D89015321432E806FBE1010E142656
:104D7000000E1522040E14C0DBFF12D0080E146EB4
:104D8000156A020EDBCF08F0030EDBCF09F014C06A
:104D90000DF015C00EF0F4EC2DF0040E08C0DBFF92
:104DA000050EDBCFE9FFDB2A060EDBCFEAFF01E3CE
:104DB000DB2A040EDBCFEFFFFB0EDBCFE9FFFC0E9F
:104DC000DBCFEAFFEE2A000EED22020EDBCFE6FF7C
:104DD000030EDBCFE6FFDECFE6FFDDCFE6FF050EFD
:104DE000DBCFE6FF060EDBCFE6FFE3EC1EF0146E32
:104DF000060EE15E1450E76E080EE7CFDBFFDB50D6
:104E00000BE0080EDBCFE6FF1FEC21F0E552E76E6A
:104E1000070EE7CFDBFF0ED0040EDB50146E156AD1
:104E2000FB0EDBCFE9FFFC0EDBCFEAFF1450EE26D2
:104E30001550ED2205D0030EF36E070EF3CFDBFF06
:104E400005D0030EF36E070EF3CFDBFF070EDB502A
:104E5000146E090EE15C03E200D0E16AE552E16EF6
:0A4E60001450E552E7CFD9FF12000D
:064E6A00D9CFE6FFE1CF05
:104E7000D9FF0A0EE126060EDB6AFB0EDBCFE9FF47
:104E8000FC0EDBCFEAFF050EEE1801E1ED5001E06C
:104E900004D1010EE76EFD0EDBCFE9FFFE0EDBCF86
:104EA000EAFFE750E926000EEA22EF50DE6EDD6AE7
:104EB000D9CFE9FFDACFEAFFEE50ED6EEF6A020ECE
:104EC000E76EFD0EDBCFE9FFFE0EDBCFEAFFE7501A
:104ED000E926000EEA22EF50DF12DF2A010E01E37D
:104EE000DB2A030EE76EFD0EDBCFE9FFFE0EDBCF04
:104EF000EAFFE750E926000EEA22EF50E66ED950AD
:104F0000020FE96EDACFEAFFE552E750EE6EED6A86
:104F1000D950020FE96EDACFEAFFEE50ED6EEF6A7C
:104F2000040EE76EFD0EDBCFE9FFFE0EDBCFEAFFDE
:104F3000E750E926000EEA22EF50146E156AD950A8
:104F4000020FE96EDACFEAFF1450EE121550ED129F
:104F5000020EDBCF14F0030EDBCF15F0010E145C54
:104F6000000E155801E293D0020EDBCF16F0030EAF
:104F7000DBCF17F07D0E165C000E175801E387D0CB
:104F8000FD0EDBCF08F0FE0EDBCF09F0040E08C0EB
:104F9000DBFF050E09C0DBFFFB0EDBCFE9FFFC0EDC
:104FA000DBCFEAFFEE6AED6A040EDBCFE9FFDB2A16
:104FB000050EDBCFEAFF01E3DB2A040EEF6EFB0EEA
:104FC000DBCFE9FFFC0EDBCFEAFFEE2A000EED227D
:104FD000020E086E096ADBCF0DF0030EDBCF0EF078
:104FE00066EC2DF00650E66E040EDBCFE9FFDB2AFF
:104FF000050EDBCFEAFF01E3DB2AE552E750EF6E57
:10500000FB0EDBCFE9FFFC0EDBCFEAFFEE2A000E42
:10501000ED22020EDBCFE6FF030EDBCFE6FFDECF95
:10502000E6FFDDCFE6FF040EDBCFE6FF050EDBCFAC
:10503000E6FF43EC1EF0146E060EE15E1450E76EC0
:10504000070EE7CFDBFFDB500BE0070EDBCFE6FF01
:105050001FEC21F0E552E76E060EE7CFDBFF16D01E
:10506000020EDBCF14F0030EDBCF15F0010ED8904B
:1050700014361536E806FBE1FB0EDBCFE9FFFC0E2C
:10508000DBCFEAFF1450EE261550ED2205D0030EBB
:10509000F36E060EF3CFDBFF05D0030EF36E060EA4
:1050A000F3CFDBFF060EDB50146E0A0EE15C03E269
:1050B00000D0E16AE552E16E1450E552E7CFD9FF26
:0250C0001200DC
:0E50C20000C1814001C0804101C0804100C199
:1050D000814001C0804100C1814000C1814001C0C8
:1050E000804101C0804100C1814000C1814001C0B8
:1050F000804100C1814001C0804101C0804100C1A8
:10510000814001C0804100C1814000C1814001C097
:10511000804100C1814001C0804101C0804100C187
:10512000814000C1814001C0804101C0804100C177
:10513000814001C0804100C1814000C1814001C067
:10514000804101C0804100C1814000C1814001C057
:10515000804100C1814001C0804101C0804100C147
:10516000814000C1814001C0804101C0804100C137
:10517000814001C0804100C1814000C1814001C027
:10518000804100C1814001C0804101C0804100C117
:10519000814001C0804100C1814000C1814001C007
:1051A000804101C0804100C1814000C1814001C0F7
:1051B000804100C1814001C0804101C0804100C1E7
:1051C000814000C0C101C30302C2C60607C705C5AE
:1051D000C404CC0C0DCD0FCFCE0E0ACACB0BC9091F
:1051E00008C8D81819D91BDBDA1A1EDEDF1FDD1D2F
:1051F0001CDC14D4D515D71716D6D21213D311D15F
:10520000D010F03031F133F3F23236F6F737F535AE
:1052100034F43CFCFD3DFF3F3EFEFA3A3BFB39F9DE
:10522000F83828E8E929EB2B2AEAEE2E2FEF2DEDAE
:10523000EC2CE42425E527E7E62622E2E323E1211E
:1052400020E0A06061A163A3A26266A6A767A5652E
:1052500064A46CACAD6DAF6F6EAEAA6A6BAB69A99E
:10526000A86878B8B979BB7B7ABABE7E7FBF7DBDAE
:10527000BC7CB47475B577B7B67672B2B373B171DE
:1052800070B05090915193535292965657975595AE
:1052900094549C5C5D9D5F9F9E5E5A9A9B5B99595E
:1052A0005898884849894B8B8A4A4E8E8F4F8D4D2E
:1052B0004C8C44848545874746868242438341819E
:0252C00080402C
:0E52C200D9CFE6FFE1CFD9FFE652DF6A020E38
:1052D000E76EF90EDBCF14F0FA0EDBCF15F0E750D6
:1052E0001426000E1522200E145C000E15585AE2EA
:1052F0000001FC6BFD6BFCC0E9FFFDC0EAFFFC2B6D
:10530000000EFD23DC0EE926000EEA22FE0EDBCFA6
:10531000EFFFFD0EDB5002E0FF0E01D0000EE66E47
:10532000FCC0E9FFFDC0EAFFFC2B000EFD23DC0EF4
:10533000E926000EEA22E552E750EF6ED950F90F48
:10534000E96EFF0EDA20EA6E000ED880EE54000EF1
:10535000ED5427E2F90EDBCFE6FFFA0EDBCFE6FFD6
:10536000FB0EDBCFE6FFFC0EDBCFE6FFDC0EFC2501
:10537000146E000EFD21156E14C0E6FF15C0E6FF89
:10538000CDEC2BF0166E060EE15E1650F90EDBCF5B
:1053900008F0FA0EDBCF09F008500001FC27095095
:1053A000FD2302D0040EDF6EDF5000D0E552E5523F
:1053B000E7CFD9FF1200D9CFE6FFE1CFD9FFFCC07C
:1053C000E6FFFDC0E6FFDC0EE66E000EE66E010EA7
:1053D000E76EFD0EDBCF14F0FE0EDBCF15F0E750CD
:1053E0001426000E152214C0E6FF15C0E6FFCDEC12
:1053F0002BF0166E060EE15E1650010E0001156AC6
:10540000FC25146EFD511522FB0EDBCFE9FFFC0ECF
:10541000DBCFEAFF14C0EEFF15C0EDFF000E00D099
:08542000E552E7CFD9FF1200AD
:08542800D9CFE6FFE1CFD9FF67
:10543000060EE126DF68010EDB68020EDB6A030E52
:10544000DB6AFB0EDBCF14F0DB06FC0EDBCF15F0C6
:1054500001E2DB061450151038E0010EDBCFE6FF49
:10546000FD0EDBCFE9FFDB2AFE0EDBCFEAFF01E317
:10547000DB2AEF50E552E718E66ED950040FE96ECB
:10548000DACFEAFFE552E750EE6EED6A040EDBCFAD
:10549000F6FF050EDBCFF7FFC20EF626500EF72201
:1054A0000800F550DF18E76E010EE7CFDBFF040EB2
:1054B000DBCFF6FF050EDBCFF7FFC20EF626510E4F
:1054C000F7220800F550DF6EBCD7DFCF14F014C010
:1054D00015F0146A020E14C0DBFF030E15C0DBFFCB
:1054E000010EDB50146E156AD950020FE96EDACF47
:1054F000EAFF1450EE121550ED12020EDBCF14F03D
:10550000030EDBCF15F014C0F3FF15C0F4FF060E39
:10551000E15C03E200D0E16AE552E16EE552E7CFDB
:04552000D9FF12009D
:0C552400D9CFE6FFE1CFD9FFC50EE66E3F
:1055300005EC2DF0E552B190A282FD0EDBCFFEF01E
:10554000FE0EDBCFFFF0010E00D0E552E7CFD9FF12
:105550001200B190FEC0E6FFFFC0E6FF84EC2DF024
:10556000E552E552B1801200B1901200DACFE4FFAB
:10557000E2CFDAFFE9CFE4FFEACFE4FFF6CFE4FFC2
:10558000F7CFE4FFF5CFE4FFF3CFE4FFF4CFE4FF80
:10559000FACFE4FFFBCFE4FF00EE00F0140EE804C6
:1055A00003E3EECFE4FFFBD700EE14F00A0EE804AD
:1055B00003E3EECFE4FFFBD7E652A19207D05AC136
:1055C000FBFF59C1FAFF01015851F96EF8DFE552AE
:1055D00000EE1DF00A0EE80403E3E5CFEDFFFBD774
:1055E00000EE13F0140EE80403E3E5CFEDFFFBD764
:1055F000E5CFFBFFE5CFFAFFE5CFF4FFE5CFF3FF03
:10560000E5CFF5FFE5CFF7FFE5CFF6FFE5CFEAFF02
:0A561000E5CFE9FFE5CFDAFF110056
:06561A00D9CFE6FFE1CF4D
:10562000D9FF040EE126700ED36E9B8C050EDE6E44
:10563000DD6ADFCF14F0DF06010EDBCF15F001E2EB
:10564000DB061450151006E0080EE66E0AEC2EF08C
:10565000E552EFD7C26A0F0EC16EB50EC06E800E56
:105660009C6E9890869098968696949C948E94982A
:105670008288976A966A846A9590839095928392BD
:10568000959483949596839695988398959A839A02
:10569000959C839C996A9A6A926A936A9490949270
:1056A00094949496640EF36E020EF3CFDBFF030E18
:1056B000DB6A020EDBCF14F0DB06030EDBCF15F046
:1056C00001E2DB061450151006E0080EE66E0AEC47
:1056D0002EF0E552EED7040EE15C02E2E16AE552FB
:0A56E000E16EE552E7CFD9FF12009A
:0656EA00D9CFE6FFE1CF7D
:1056F000D9FF040EE126030EDB6A0DEC2BF038EC2B
:105700002EF0180EE66EEBEC17F0E552A7EC00F069
:1057100073EC1DF0BE0EE66E300EE66E2F0EE66EDA
:10572000F80EE66E6FEC22F0E552E552E552E552D6
:105730000E0EE66E180EE66EDF0EE66EB10EE66E2B
:1057400092EC22F0E552E552E552E55215EC00F0FC
:105750000101D00E765D070E775905E33BEC2EF084
:105760000101766B776B01010A0E7C5D000E7D599D
:1057700005E337EC08F001017C6B7D6BB7EC1DF0A5
:10578000D7EC16F0E5D7040EE15C02E2E16AE552DF
:0A579000E16EE552E7CFD9FF1200E9
:06579A00D9CFE6FFDACFD3
:1057A000E6FFFA0EE3CFD9FFFB0EE3CFDAFFFC0EE4
:1057B000E3CFE9FFFD0EE3CFEAFFE9CFF3FFEACF46
:1057C000F4FFF80EE35003E1F90EE35008E0F80EA1
:1057D000E30602E2F90EE306DECFEEFFF2D7FF0E9C
:1057E000E3CFDAFFE552FF0EE3CFD9FFE552120017
:1057F000FE0EE3CFE9FFFF0EE3CFEAFFE9CFF3FFB1
:10580000EACFF4FFFB0EE35003E1FC0EE35009E0A6
:10581000FB0EE30602E2FC0EE306FD0EE350EE6E25
:10582000F1D71200FE0EE3CFE9FFFF0EE3CFEAFF50
:10583000F36AF46AEE5203E0F34AF42AFBD712004B
:10584000320EF66E000EF76E000EF86E01010900C2
:10585000F550946F0900F550956F03E1946701D0FE
:105860003DD00900F5508F6F0900F550906F090089
:10587000F550916F09000900F550E96E0900F550E7
:10588000EA6E090009000900F550926F0900F55011
:10589000936F09000900F6CF96F1F7CF97F1F8CF93
:1058A00098F18FC1F6FF90C1F7FF91C1F8FF010198
:1058B000925302E1935307E00900F550EE6E920710
:1058C000F8E29307F9D796C1F6FF97C1F7FF98C1A1
:0E58D000F8FF01019407000E955BBFD7120090
:0258DE00D9CF20
:1058E000E6FFDACFE6FFE1CFD9FFE2CFDAFFAC6A1D
:1058F000AB6AFD0EDBB0AC88DBA202D0AC8CAB8C0B
:10590000DBB4AC8EDBA602D0AB8801D0AB8ADBB8AF
:10591000AC84DBBAAB86DBAC02D09D8A01D09D9A09
:10592000DBAE02D09D8801D09D98FB0EDB50AF6EA0
:10593000FC0EDBCF15F015C014F0156A14507F6E05
:10594000AC8AAB8E949C948EAC50100B04E0AC509F
:10595000800B01E1948CE552E5CFDAFFE7CFD9FF68
:02596000120033
:0E5962000101A26B010E00D01200D9CFE6FFAA
:10597000E1CFD9FF0101010EA26FFE0EDBCFA1F135
:10598000010E00D0E552E7CFD9FF1200D9CFE6FFD4
:10599000E1CFD9FFE652DF6A0101A2510BE0FD0E13
:1059A000DBCFE9FFFE0EDBCFEAFFA1C1EFFFA26B69
:1059B000010EDF6EDF5000D0E552E552E7CFD9FF90
:0259C0001200D3
:0E59C200056A046A036A026A200EE76ED89036
:1059D00006360736083609360236033604360536EB
:1059E0000B50025C0C5003580D5004580E500558D3
:1059F00009E30B50025E0C50035A0D50045A0E502E
:0A5A0000055A062AE72EE4D712002B
:065A0A00D9CFE6FFDACF60
:105A1000E6FFE1CFD9FFE2CFDAFFFD0EDB50360B18
:105A2000B16EB36AB26AA192FD0EDBAE02D0A08263
:105A300001D0A092DBA002D0B18E01D0B19EB18086
:0C5A4000E552E5CFDAFFE7CFD9FF1200F6
:045A4C00D9CFE6FFC9
:105A5000DACFE6FFE1CFD9FFE2CFDAFFFD0EDB5070
:105A60007E0BCD6EFD0EDBAC02D0CD8E01D0CD9E77
